{
  "contractName": "StreamFightersBet",
  "abi": [
    {
      "inputs": [],
      "stateMutability": "nonpayable",
      "type": "constructor"
    },
    {
      "inputs": [
        {
          "internalType": "address",
          "name": "sender",
          "type": "address"
        },
        {
          "internalType": "uint256",
          "name": "tokenId",
          "type": "uint256"
        },
        {
          "internalType": "address",
          "name": "owner",
          "type": "address"
        }
      ],
      "name": "ERC721IncorrectOwner",
      "type": "error"
    },
    {
      "inputs": [
        {
          "internalType": "address",
          "name": "operator",
          "type": "address"
        },
        {
          "internalType": "uint256",
          "name": "tokenId",
          "type": "uint256"
        }
      ],
      "name": "ERC721InsufficientApproval",
      "type": "error"
    },
    {
      "inputs": [
        {
          "internalType": "address",
          "name": "approver",
          "type": "address"
        }
      ],
      "name": "ERC721InvalidApprover",
      "type": "error"
    },
    {
      "inputs": [
        {
          "internalType": "address",
          "name": "operator",
          "type": "address"
        }
      ],
      "name": "ERC721InvalidOperator",
      "type": "error"
    },
    {
      "inputs": [
        {
          "internalType": "address",
          "name": "owner",
          "type": "address"
        }
      ],
      "name": "ERC721InvalidOwner",
      "type": "error"
    },
    {
      "inputs": [
        {
          "internalType": "address",
          "name": "receiver",
          "type": "address"
        }
      ],
      "name": "ERC721InvalidReceiver",
      "type": "error"
    },
    {
      "inputs": [
        {
          "internalType": "address",
          "name": "sender",
          "type": "address"
        }
      ],
      "name": "ERC721InvalidSender",
      "type": "error"
    },
    {
      "inputs": [
        {
          "internalType": "uint256",
          "name": "tokenId",
          "type": "uint256"
        }
      ],
      "name": "ERC721NonexistentToken",
      "type": "error"
    },
    {
      "inputs": [],
      "name": "ReentrancyGuardReentrantCall",
      "type": "error"
    },
    {
      "anonymous": false,
      "inputs": [
        {
          "indexed": true,
          "internalType": "address",
          "name": "owner",
          "type": "address"
        },
        {
          "indexed": true,
          "internalType": "address",
          "name": "approved",
          "type": "address"
        },
        {
          "indexed": true,
          "internalType": "uint256",
          "name": "tokenId",
          "type": "uint256"
        }
      ],
      "name": "Approval",
      "type": "event"
    },
    {
      "anonymous": false,
      "inputs": [
        {
          "indexed": true,
          "internalType": "address",
          "name": "owner",
          "type": "address"
        },
        {
          "indexed": true,
          "internalType": "address",
          "name": "operator",
          "type": "address"
        },
        {
          "indexed": false,
          "internalType": "bool",
          "name": "approved",
          "type": "bool"
        }
      ],
      "name": "ApprovalForAll",
      "type": "event"
    },
    {
      "anonymous": false,
      "inputs": [
        {
          "indexed": true,
          "internalType": "address",
          "name": "by",
          "type": "address"
        },
        {
          "indexed": true,
          "internalType": "uint256",
          "name": "fightId",
          "type": "uint256"
        },
        {
          "indexed": false,
          "internalType": "uint256",
          "name": "amount",
          "type": "uint256"
        },
        {
          "indexed": false,
          "internalType": "uint256",
          "name": "liquidatedAt",
          "type": "uint256"
        }
      ],
      "name": "AssetLiquidatedEvent",
      "type": "event"
    },
    {
      "anonymous": false,
      "inputs": [
        {
          "indexed": true,
          "internalType": "address",
          "name": "bettor",
          "type": "address"
        },
        {
          "indexed": true,
          "internalType": "uint256",
          "name": "fightId",
          "type": "uint256"
        },
        {
          "indexed": false,
          "internalType": "uint256",
          "name": "amount",
          "type": "uint256"
        },
        {
          "indexed": true,
          "internalType": "uint256",
          "name": "betPlacedAt",
          "type": "uint256"
        }
      ],
      "name": "BetPlacedEvent",
      "type": "event"
    },
    {
      "anonymous": false,
      "inputs": [
        {
          "indexed": true,
          "internalType": "address",
          "name": "by",
          "type": "address"
        },
        {
          "indexed": true,
          "internalType": "uint256",
          "name": "fightId",
          "type": "uint256"
        },
        {
          "indexed": false,
          "internalType": "uint256",
          "name": "closedAt",
          "type": "uint256"
        }
      ],
      "name": "FightClosedEvent",
      "type": "event"
    },
    {
      "anonymous": false,
      "inputs": [
        {
          "indexed": false,
          "internalType": "address",
          "name": "creator",
          "type": "address"
        },
        {
          "indexed": true,
          "internalType": "uint256",
          "name": "fightId",
          "type": "uint256"
        },
        {
          "indexed": true,
          "internalType": "uint256",
          "name": "apiFightId",
          "type": "uint256"
        },
        {
          "indexed": false,
          "internalType": "uint256",
          "name": "startAt",
          "type": "uint256"
        },
        {
          "indexed": true,
          "internalType": "uint256",
          "name": "createdOn",
          "type": "uint256"
        }
      ],
      "name": "FightCreatedEvent",
      "type": "event"
    },
    {
      "anonymous": false,
      "inputs": [
        {
          "indexed": true,
          "internalType": "uint256",
          "name": "fightId",
          "type": "uint256"
        },
        {
          "indexed": false,
          "internalType": "enum StreamFightersBet.FightResult",
          "name": "result",
          "type": "uint8"
        },
        {
          "indexed": false,
          "internalType": "uint256",
          "name": "setAt",
          "type": "uint256"
        }
      ],
      "name": "FightResultSetEvent",
      "type": "event"
    },
    {
      "anonymous": false,
      "inputs": [
        {
          "indexed": true,
          "internalType": "address",
          "name": "awardee",
          "type": "address"
        },
        {
          "indexed": true,
          "internalType": "uint256",
          "name": "fightId",
          "type": "uint256"
        },
        {
          "indexed": false,
          "internalType": "uint256",
          "name": "smartAssetId",
          "type": "uint256"
        },
        {
          "indexed": false,
          "internalType": "uint256",
          "name": "awardedAt",
          "type": "uint256"
        }
      ],
      "name": "SmartAssetAwardedEvent",
      "type": "event"
    },
    {
      "anonymous": false,
      "inputs": [
        {
          "indexed": false,
          "internalType": "uint256",
          "name": "tokenId",
          "type": "uint256"
        },
        {
          "indexed": false,
          "internalType": "string",
          "name": "uri",
          "type": "string"
        }
      ],
      "name": "TokenURISet",
      "type": "event"
    },
    {
      "anonymous": false,
      "inputs": [
        {
          "indexed": true,
          "internalType": "address",
          "name": "from",
          "type": "address"
        },
        {
          "indexed": true,
          "internalType": "address",
          "name": "to",
          "type": "address"
        },
        {
          "indexed": true,
          "internalType": "uint256",
          "name": "tokenId",
          "type": "uint256"
        }
      ],
      "name": "Transfer",
      "type": "event"
    },
    {
      "inputs": [],
      "name": "CRT",
      "outputs": [
        {
          "internalType": "address",
          "name": "",
          "type": "address"
        }
      ],
      "stateMutability": "view",
      "type": "function",
      "constant": true
    },
    {
      "inputs": [
        {
          "internalType": "address",
          "name": "to",
          "type": "address"
        },
        {
          "internalType": "uint256",
          "name": "tokenId",
          "type": "uint256"
        }
      ],
      "name": "approve",
      "outputs": [],
      "stateMutability": "nonpayable",
      "type": "function"
    },
    {
      "inputs": [
        {
          "internalType": "address",
          "name": "owner",
          "type": "address"
        }
      ],
      "name": "balanceOf",
      "outputs": [
        {
          "internalType": "uint256",
          "name": "",
          "type": "uint256"
        }
      ],
      "stateMutability": "view",
      "type": "function",
      "constant": true
    },
    {
      "inputs": [
        {
          "internalType": "uint256",
          "name": "tokenId",
          "type": "uint256"
        }
      ],
      "name": "getApproved",
      "outputs": [
        {
          "internalType": "address",
          "name": "",
          "type": "address"
        }
      ],
      "stateMutability": "view",
      "type": "function",
      "constant": true
    },
    {
      "inputs": [
        {
          "internalType": "address",
          "name": "",
          "type": "address"
        }
      ],
      "name": "hasBet",
      "outputs": [
        {
          "internalType": "bool",
          "name": "",
          "type": "bool"
        }
      ],
      "stateMutability": "view",
      "type": "function",
      "constant": true
    },
    {
      "inputs": [
        {
          "internalType": "address",
          "name": "owner",
          "type": "address"
        },
        {
          "internalType": "address",
          "name": "operator",
          "type": "address"
        }
      ],
      "name": "isApprovedForAll",
      "outputs": [
        {
          "internalType": "bool",
          "name": "",
          "type": "bool"
        }
      ],
      "stateMutability": "view",
      "type": "function",
      "constant": true
    },
    {
      "inputs": [],
      "name": "name",
      "outputs": [
        {
          "internalType": "string",
          "name": "",
          "type": "string"
        }
      ],
      "stateMutability": "view",
      "type": "function",
      "constant": true
    },
    {
      "inputs": [
        {
          "internalType": "uint256",
          "name": "tokenId",
          "type": "uint256"
        }
      ],
      "name": "ownerOf",
      "outputs": [
        {
          "internalType": "address",
          "name": "",
          "type": "address"
        }
      ],
      "stateMutability": "view",
      "type": "function",
      "constant": true
    },
    {
      "inputs": [
        {
          "internalType": "address",
          "name": "from",
          "type": "address"
        },
        {
          "internalType": "address",
          "name": "to",
          "type": "address"
        },
        {
          "internalType": "uint256",
          "name": "tokenId",
          "type": "uint256"
        }
      ],
      "name": "safeTransferFrom",
      "outputs": [],
      "stateMutability": "nonpayable",
      "type": "function"
    },
    {
      "inputs": [
        {
          "internalType": "address",
          "name": "from",
          "type": "address"
        },
        {
          "internalType": "address",
          "name": "to",
          "type": "address"
        },
        {
          "internalType": "uint256",
          "name": "tokenId",
          "type": "uint256"
        },
        {
          "internalType": "bytes",
          "name": "data",
          "type": "bytes"
        }
      ],
      "name": "safeTransferFrom",
      "outputs": [],
      "stateMutability": "nonpayable",
      "type": "function"
    },
    {
      "inputs": [
        {
          "internalType": "address",
          "name": "operator",
          "type": "address"
        },
        {
          "internalType": "bool",
          "name": "approved",
          "type": "bool"
        }
      ],
      "name": "setApprovalForAll",
      "outputs": [],
      "stateMutability": "nonpayable",
      "type": "function"
    },
    {
      "inputs": [
        {
          "internalType": "bytes4",
          "name": "interfaceId",
          "type": "bytes4"
        }
      ],
      "name": "supportsInterface",
      "outputs": [
        {
          "internalType": "bool",
          "name": "",
          "type": "bool"
        }
      ],
      "stateMutability": "view",
      "type": "function",
      "constant": true
    },
    {
      "inputs": [],
      "name": "symbol",
      "outputs": [
        {
          "internalType": "string",
          "name": "",
          "type": "string"
        }
      ],
      "stateMutability": "view",
      "type": "function",
      "constant": true
    },
    {
      "inputs": [
        {
          "internalType": "address",
          "name": "from",
          "type": "address"
        },
        {
          "internalType": "address",
          "name": "to",
          "type": "address"
        },
        {
          "internalType": "uint256",
          "name": "tokenId",
          "type": "uint256"
        }
      ],
      "name": "transferFrom",
      "outputs": [],
      "stateMutability": "nonpayable",
      "type": "function"
    },
    {
      "stateMutability": "payable",
      "type": "receive",
      "payable": true
    },
    {
      "inputs": [
        {
          "internalType": "uint256",
          "name": "_apiFightId",
          "type": "uint256"
        },
        {
          "internalType": "string",
          "name": "fightName",
          "type": "string"
        },
        {
          "internalType": "string",
          "name": "_uriBoxerA",
          "type": "string"
        },
        {
          "internalType": "string",
          "name": "_uriBoxerB",
          "type": "string"
        },
        {
          "internalType": "uint256",
          "name": "_startAt",
          "type": "uint256"
        }
      ],
      "name": "createFight",
      "outputs": [
        {
          "internalType": "uint256",
          "name": "",
          "type": "uint256"
        }
      ],
      "stateMutability": "nonpayable",
      "type": "function"
    },
    {
      "inputs": [
        {
          "internalType": "uint256",
          "name": "_fightId",
          "type": "uint256"
        },
        {
          "internalType": "uint8",
          "name": "_resultBetOn",
          "type": "uint8"
        },
        {
          "internalType": "uint256",
          "name": "amountBet",
          "type": "uint256"
        }
      ],
      "name": "placeBetCRT",
      "outputs": [
        {
          "internalType": "uint256",
          "name": "",
          "type": "uint256"
        }
      ],
      "stateMutability": "nonpayable",
      "type": "function"
    },
    {
      "inputs": [
        {
          "internalType": "uint256",
          "name": "_fightId",
          "type": "uint256"
        }
      ],
      "name": "startFight",
      "outputs": [],
      "stateMutability": "nonpayable",
      "type": "function"
    },
    {
      "inputs": [
        {
          "internalType": "uint256",
          "name": "_fightId",
          "type": "uint256"
        },
        {
          "internalType": "uint8",
          "name": "_fightResult",
          "type": "uint8"
        }
      ],
      "name": "closeFight",
      "outputs": [],
      "stateMutability": "nonpayable",
      "type": "function"
    },
    {
      "inputs": [
        {
          "internalType": "uint256",
          "name": "_smartAssetId",
          "type": "uint256"
        }
      ],
      "name": "liquidateAssetCRT",
      "outputs": [
        {
          "internalType": "bool",
          "name": "",
          "type": "bool"
        }
      ],
      "stateMutability": "nonpayable",
      "type": "function"
    },
    {
      "inputs": [
        {
          "internalType": "uint256",
          "name": "tokenId",
          "type": "uint256"
        }
      ],
      "name": "tokenURI",
      "outputs": [
        {
          "internalType": "string",
          "name": "",
          "type": "string"
        }
      ],
      "stateMutability": "view",
      "type": "function",
      "constant": true
    },
    {
      "inputs": [],
      "name": "toggleCircuitBreaker",
      "outputs": [],
      "stateMutability": "nonpayable",
      "type": "function"
    },
    {
      "inputs": [
        {
          "internalType": "uint256",
          "name": "_fightId",
          "type": "uint256"
        }
      ],
      "name": "getFight",
      "outputs": [
        {
          "components": [
            {
              "internalType": "address",
              "name": "creator",
              "type": "address"
            },
            {
              "internalType": "string",
              "name": "fightName",
              "type": "string"
            },
            {
              "internalType": "string",
              "name": "uriBoxerA",
              "type": "string"
            },
            {
              "internalType": "string",
              "name": "uriBoxerB",
              "type": "string"
            },
            {
              "internalType": "uint256",
              "name": "totalPayoutBoxerA",
              "type": "uint256"
            },
            {
              "internalType": "uint256",
              "name": "totalPayoutBoxerB",
              "type": "uint256"
            },
            {
              "internalType": "uint256",
              "name": "totalCollected",
              "type": "uint256"
            },
            {
              "internalType": "enum StreamFightersBet.FightResult",
              "name": "result",
              "type": "uint8"
            },
            {
              "internalType": "enum StreamFightersBet.FightState",
              "name": "state",
              "type": "uint8"
            },
            {
              "internalType": "uint256",
              "name": "startsAt",
              "type": "uint256"
            },
            {
              "internalType": "bool",
              "name": "exists",
              "type": "bool"
            }
          ],
          "internalType": "struct StreamFightersBet.Fight",
          "name": "fight_",
          "type": "tuple"
        }
      ],
      "stateMutability": "view",
      "type": "function",
      "constant": true
    },
    {
      "inputs": [
        {
          "internalType": "uint256",
          "name": "_smartAssetId",
          "type": "uint256"
        }
      ],
      "name": "getSmartAsset",
      "outputs": [
        {
          "components": [
            {
              "internalType": "address",
              "name": "owner",
              "type": "address"
            },
            {
              "internalType": "uint256",
              "name": "fightId",
              "type": "uint256"
            },
            {
              "internalType": "enum StreamFightersBet.FightResult",
              "name": "fightResult",
              "type": "uint8"
            },
            {
              "internalType": "uint256",
              "name": "initialValue",
              "type": "uint256"
            },
            {
              "internalType": "uint8",
              "name": "accruedInterest",
              "type": "uint8"
            }
          ],
          "internalType": "struct StreamFightersBet.SmartAsset",
          "name": "asset",
          "type": "tuple"
        }
      ],
      "stateMutability": "view",
      "type": "function",
      "constant": true
    },
    {
      "inputs": [],
      "name": "getTotalBettors",
      "outputs": [
        {
          "internalType": "uint256",
          "name": "",
          "type": "uint256"
        }
      ],
      "stateMutability": "view",
      "type": "function",
      "constant": true
    },
    {
      "inputs": [],
      "name": "getPoolCRT",
      "outputs": [
        {
          "internalType": "uint256",
          "name": "",
          "type": "uint256"
        }
      ],
      "stateMutability": "view",
      "type": "function",
      "constant": true
    },
    {
      "inputs": [],
      "name": "isAdmin",
      "outputs": [
        {
          "internalType": "bool",
          "name": "",
          "type": "bool"
        }
      ],
      "stateMutability": "view",
      "type": "function",
      "constant": true
    },
    {
      "inputs": [
        {
          "internalType": "address",
          "name": "newOwner",
          "type": "address"
        }
      ],
      "name": "changeOwner",
      "outputs": [],
      "stateMutability": "nonpayable",
      "type": "function"
    }
  ],
  "bytecode": "0x6080604052600a805460ff191690553480156200001b57600080fd5b506040518060400160405280601181526020017014dd1c99585b519a59da1d195c9cd0995d607a1b8152506040518060400160405280600381526020016229a32160e91b815250816000908162000073919062000169565b50600162000082828262000169565b5050600160065550600780546001600160a01b031990811633179091556014805490911673281027c6a46142d6fc57f12665147221ce69af3317905562000235565b634e487b7160e01b600052604160045260246000fd5b600181811c90821680620000ef57607f821691505b6020821081036200011057634e487b7160e01b600052602260045260246000fd5b50919050565b601f8211156200016457600081815260208120601f850160051c810160208610156200013f5750805b601f850160051c820191505b8181101562000160578281556001016200014b565b5050505b505050565b81516001600160401b03811115620001855762000185620000c4565b6200019d81620001968454620000da565b8462000116565b602080601f831160018114620001d55760008415620001bc5750858301515b600019600386901b1c1916600185901b17855562000160565b600085815260208120601f198616915b828110156200020657888601518255948401946001909101908401620001e5565b5085821015620002255787850151600019600388901b60f8161c191681555b5050505050600190811b01905550565b6131fd80620002456000396000f3fe6080604052600436106101a05760003560e01c806370a08231116100ec578063b88d4fde1161008a578063d2c2cc8411610064578063d2c2cc84146104cf578063d5eb63cc146104fc578063e8bac39514610511578063e985e9c51461053157600080fd5b8063b88d4fde1461047a578063c008a6621461049a578063c87b56dd146104af57600080fd5b8063a22cb465116100c6578063a22cb465146103fa578063a6f9dae11461041a578063a87822cc1461043a578063b6db75a01461045a57600080fd5b806370a08231146103b057806395d89b41146103d05780639a275f58146103e557600080fd5b806323b872dd1161015957806342842e0e1161013357806342842e0e1461032357806346d8090e146103435780636352211e146103705780636ceda1341461039057600080fd5b806323b872dd146102bb5780632aa0a5c8146102db57806331d038201461030357600080fd5b806301ffc9a7146101ac57806306fdde03146101e1578063081812fc14610203578063095ea7b31461023b5780630ba88bd91461025d578063136f10161461028b57600080fd5b366101a757005b600080fd5b3480156101b857600080fd5b506101cc6101c7366004612956565b610551565b60405190151581526020015b60405180910390f35b3480156101ed57600080fd5b506101f66105a3565b6040516101d891906129c0565b34801561020f57600080fd5b5061022361021e3660046129d3565b610635565b6040516001600160a01b0390911681526020016101d8565b34801561024757600080fd5b5061025b610256366004612a08565b61065c565b005b34801561026957600080fd5b5061027d610278366004612a43565b6106fa565b6040519081526020016101d8565b34801561029757600080fd5b506101cc6102a6366004612a78565b600d6020526000908152604090205460ff1681565b3480156102c757600080fd5b5061025b6102d6366004612a93565b610bd8565b3480156102e757600080fd5b5061022373281027c6a46142d6fc57f12665147221ce69af3381565b34801561030f57600080fd5b5061025b61031e3660046129d3565b610c13565b34801561032f57600080fd5b5061025b61033e366004612a93565b610cfc565b34801561034f57600080fd5b5061036361035e3660046129d3565b610d17565b6040516101d89190612b00565b34801561037c57600080fd5b5061022361038b3660046129d3565b610fe1565b34801561039c57600080fd5b5061025b6103ab366004612bdc565b61101a565b3480156103bc57600080fd5b5061027d6103cb366004612a78565b61131d565b3480156103dc57600080fd5b506101f6611365565b3480156103f157600080fd5b50600b5461027d565b34801561040657600080fd5b5061025b610415366004612c16565b611374565b34801561042657600080fd5b5061025b610435366004612a78565b611383565b34801561044657600080fd5b506101cc6104553660046129d3565b6113cf565b34801561046657600080fd5b506007546001600160a01b031633146101cc565b34801561048657600080fd5b5061025b610495366004612c63565b6117ac565b3480156104a657600080fd5b50600c5461027d565b3480156104bb57600080fd5b506101f66104ca3660046129d3565b6117ee565b3480156104db57600080fd5b506104ef6104ea3660046129d3565b6118fb565b6040516101d89190612d3f565b34801561050857600080fd5b5061025b6119f3565b34801561051d57600080fd5b5061027d61052c366004612dd6565b611a31565b34801561053d57600080fd5b506101cc61054c366004612e81565b611d3f565b60006001600160e01b031982166380ac58cd60e01b148061058257506001600160e01b03198216635b5e139f60e01b145b8061059d57506301ffc9a760e01b6001600160e01b03198316145b92915050565b6060600080546105b290612eab565b80601f01602080910402602001604051908101604052809291908181526020018280546105de90612eab565b801561062b5780601f106106005761010080835404028352916020019161062b565b820191906000526020600020905b81548152906001019060200180831161060e57829003601f168201915b5050505050905090565b600061064082611d6d565b506000908152600460205260409020546001600160a01b031690565b600061066782610fe1565b9050806001600160a01b0316836001600160a01b0316036106ab57604051630b61174360e31b81526001600160a01b03821660048201526024015b60405180910390fd5b336001600160a01b038216148015906106cb57506106c98133611d3f565b155b156106eb5760405163a9fbf51f60e01b81523360048201526024016106a2565b6106f58383611d99565b505050565b600a5460009060ff16156107485760405162461bcd60e51b815260206004820152601560248201527421b4b931bab4ba10313932b0b5b2b91034b99037b760591b60448201526064016106a2565b6000848152600f6020526040902060090154849060ff1661077b5760405162461bcd60e51b81526004016106a290612edf565b84600080828152600f6020526040902060070154610100900460ff1660028111156107a8576107a8612abf565b146107e55760405162461bcd60e51b815260206004820152600d60248201526c199a59da1d081cdd185c9d1959609a1b60448201526064016106a2565b858560018160ff1660028111156107fe576107fe612abf565b600281111561080f5761080f612abf565b1480610840575060028160ff16600281111561082d5761082d612abf565b600281111561083e5761083e612abf565b145b6108835760405162461bcd60e51b8152602060048201526014602482015273125b9d985b1a5908199a59da1d081c995cdd5b1d60621b60448201526064016106a2565b61088b611e07565b856000036108d05760405162461bcd60e51b8152602060048201526012602482015271125b9d985b1a5908185b5bdd5b9d0818995d60721b60448201526064016106a2565b6000888152600f6020526040902060080154421161091d5760405162461bcd60e51b815260206004820152600a602482015269054696d652069732075760b41b60448201526064016106a2565b336000818152600d602052604090205460ff1661096257336000908152600d60205260408120805460ff19166001179055600c80549161095c83612f2c565b91905055505b60008860ff16600281111561097957610979612abf565b9050600181600281111561098f5761098f612abf565b036109c85760008a8152600f60205260409020600401546109b1908990612f45565b60008b8152600f6020526040902060040155610a11565b60028160028111156109dc576109dc612abf565b03610a115760008a8152600f60205260409020600501546109fe908990612f45565b60008b8152600f60205260409020600501555b60008a8152600f6020526040902060060154610a2e908990612f45565b60008b8152600f6020526040812060060191909155600b80548a9290610a55908490612f45565b90915550506014546040516323b872dd60e01b8152336004820152306024820152604481018a90526001600160a01b03909116906323b872dd906064016020604051808303816000875af1158015610ab1573d6000803e3d6000fd5b505050506040513d601f19601f82011682018060405250810190610ad59190612f58565b610b175760405162461bcd60e51b8152602060048201526013602482015272151c985b9cd9995c8810d4950819985a5b1959606a1b60448201526064016106a2565b6000610b25838a8d85611e31565b60008c8152601160205260408120919250836002811115610b4857610b48612abf565b6002811115610b5957610b59612abf565b81526020808201929092526040908101600090812080546001810182559082529083902001839055518a815242918d916001600160a01b038716917fb1283c9c8bacdf8cd70a313323578124c5fe2beedea39d5b268157d1638236aa910160405180910390a496505050610bcd6001600655565b505050509392505050565b610be233826120ee565b610c085760405163177e802f60e01b8152336004820152602481018290526044016106a2565b6106f583838361214c565b6007546001600160a01b03163314610c3d5760405162461bcd60e51b81526004016106a290612f75565b6000818152600f6020526040902060090154819060ff16610c705760405162461bcd60e51b81526004016106a290612edf565b81600080828152600f6020526040902060070154610100900460ff166002811115610c9d57610c9d612abf565b14610cda5760405162461bcd60e51b815260206004820152600d60248201526c199a59da1d081cdd185c9d1959609a1b60448201526064016106a2565b50506000908152600f60205260409020600701805461ff001916610100179055565b6106f5838383604051806020016040528060008152506117ac565b610d1f6128cc565b6000828152600f6020526040902060090154829060ff16610d525760405162461bcd60e51b81526004016106a290612edf565b6000838152600f60209081526040918290208251610160810190935280546001600160a01b031683526001810180549192840191610d8f90612eab565b80601f0160208091040260200160405190810160405280929190818152602001828054610dbb90612eab565b8015610e085780601f10610ddd57610100808354040283529160200191610e08565b820191906000526020600020905b815481529060010190602001808311610deb57829003601f168201915b50505050508152602001600282018054610e2190612eab565b80601f0160208091040260200160405190810160405280929190818152602001828054610e4d90612eab565b8015610e9a5780601f10610e6f57610100808354040283529160200191610e9a565b820191906000526020600020905b815481529060010190602001808311610e7d57829003601f168201915b50505050508152602001600382018054610eb390612eab565b80601f0160208091040260200160405190810160405280929190818152602001828054610edf90612eab565b8015610f2c5780601f10610f0157610100808354040283529160200191610f2c565b820191906000526020600020905b815481529060010190602001808311610f0f57829003601f168201915b5050509183525050600482015460208201526005820154604082015260068201546060820152600782015460809091019060ff166002811115610f7157610f71612abf565b6002811115610f8257610f82612abf565b81526020016007820160019054906101000a900460ff166002811115610faa57610faa612abf565b6002811115610fbb57610fbb612abf565b81526008820154602082015260099091015460ff16151560409091015291505b50919050565b6000818152600260205260408120546001600160a01b03168061059d57604051637e27328960e01b8152600481018490526024016106a2565b6007546001600160a01b031633146110445760405162461bcd60e51b81526004016106a290612f75565b6000828152600f6020526040902060090154829060ff166110775760405162461bcd60e51b81526004016106a290612edf565b8260016000828152600f6020526040902060070154610100900460ff1660028111156110a5576110a5612abf565b146110e65760405162461bcd60e51b8152602060048201526011602482015270199a59da1d081b9bdd081cdd185c9d1959607a1b60448201526064016106a2565b8260018160ff1660028111156110fe576110fe612abf565b600281111561110f5761110f612abf565b1480611140575060028160ff16600281111561112d5761112d612abf565b600281111561113e5761113e612abf565b145b6111835760405162461bcd60e51b8152602060048201526014602482015273125b9d985b1a5908199a59da1d081c995cdd5b1d60621b60448201526064016106a2565b61118b611e07565b6000858152600f60205260408120600701805461ff00191661020017905560ff851660028111156111be576111be612abf565b90506111ca86826122da565b60018160028111156111de576111de612abf565b0361127057600086815260116020526040812061126b9160025b600281111561120957611209612abf565b815260200190815260200160002080548060200260200160405190810160405280929190818152602001828054801561126157602002820191906000526020600020905b81548152602001906001019080831161124d575b5050505050612362565b6112d4565b600281600281111561128457611284612abf565b036112a257600086815260116020526040812061126b9160016111f8565b60008681526011602052604081206112bb9160016111f8565b60008681526011602052604081206112d49160026111f8565b604051428152869033907fdbd28462ca61ecc7c6a92e6dde45a03f9f74d151ebddc25a30e3c8859de599489060200160405180910390a3506113166001600655565b5050505050565b60006001600160a01b038216611349576040516322718ad960e21b8152600060048201526024016106a2565b506001600160a01b031660009081526003602052604090205490565b6060600180546105b290612eab565b61137f3383836123a2565b5050565b6007546001600160a01b031633146113ad5760405162461bcd60e51b81526004016106a290612f75565b600780546001600160a01b0319166001600160a01b0392909216919091179055565b600a5460009060ff161561141d5760405162461bcd60e51b815260206004820152601560248201527421b4b931bab4ba10313932b0b5b2b91034b99037b760591b60448201526064016106a2565b816114278161244c565b6114635760405162461bcd60e51b815260206004820152600d60248201526c24b73b30b634b2103a37b5b2b760991b60448201526064016106a2565b823361146e82610fe1565b6001600160a01b0316146114c45760405162461bcd60e51b815260206004820152601960248201527f63616c6c6572206973206e6f7420746f6b656e206f776e65720000000000000060448201526064016106a2565b6114cc611e07565b6000848152600e60209081526040808320815160a08101835281546001600160a01b03168152600182015493810193909352600280820154919284019160ff169081111561151c5761151c612abf565b600281111561152d5761152d612abf565b81526003820154602082015260049091015460ff16604090910152905060026020828101516000908152600f9091526040902060070154610100900460ff16600281111561157d5761157d612abf565b146115e15760405162461bcd60e51b815260206004820152602e60248201527f43616e6e6f74206c697175696461746520617373657420756e74696c2066696760448201526d1a1d081a5cc8199a5b9a5cda195960921b60648201526084016106a2565b60006115fa826020015183606001518460400151612469565b6014546040516370a0823160e01b815230600482015291925082916001600160a01b03909116906370a0823190602401602060405180830381865afa158015611647573d6000803e3d6000fd5b505050506040513d601f19601f8201168201806040525081019061166b9190612fa2565b10156116c55760405162461bcd60e51b815260206004820152602360248201527f436f6e74726163742068617320696e73756666696369656e74204352542066756044820152626e647360e81b60648201526084016106a2565b6116ce866124fc565b60145460405163a9059cbb60e01b8152336004820152602481018390526001600160a01b039091169063a9059cbb906044016020604051808303816000875af115801561171f573d6000803e3d6000fd5b505050506040513d601f19601f820116820180604052508101906117439190612f58565b508160200151336001600160a01b03167f272d35cd904617477d1f00fc52a260e0fd2bbdb7052bb00fc0793393cc1c8d1a834260405161178d929190918252602082015260400190565b60405180910390a36001945050506117a56001600655565b5050919050565b6117b633836120ee565b6117dc5760405163177e802f60e01b8152336004820152602481018390526044016106a2565b6117e884848484612505565b50505050565b60606117f98261244c565b61185d5760405162461bcd60e51b815260206004820152602f60248201527f4552433732314d657461646174613a2055524920717565727920666f72206e6f60448201526e3732bc34b9ba32b73a103a37b5b2b760891b60648201526084016106a2565b6000828152601360205260409020805461187690612eab565b80601f01602080910402602001604051908101604052809291908181526020018280546118a290612eab565b80156118ef5780601f106118c4576101008083540402835291602001916118ef565b820191906000526020600020905b8154815290600101906020018083116118d257829003601f168201915b50505050509050919050565b6040805160a081018252600080825260208201819052918101829052606081018290526080810191909152816119308161244c565b61196c5760405162461bcd60e51b815260206004820152600d60248201526c24b73b30b634b2103a37b5b2b760991b60448201526064016106a2565b6000838152600e6020908152604091829020825160a08101845281546001600160a01b03168152600182015492810192909252600280820154929391929184019160ff16908111156119c0576119c0612abf565b60028111156119d1576119d1612abf565b81526003820154602082015260049091015460ff166040909101529392505050565b6007546001600160a01b03163314611a1d5760405162461bcd60e51b81526004016106a290612f75565b600a805460ff19811660ff90911615179055565b600088815260106020526040812054899015611a855760405162461bcd60e51b81526020600482015260136024820152726170692066696768742049442065786973747360681b60448201526064016106a2565b6007546001600160a01b03163314611aaf5760405162461bcd60e51b81526004016106a290612f75565b611ab96008612544565b6000611ac460085490565b9050604051806101600160405280336001600160a01b031681526020018b8b8080601f016020809104026020016040519081016040528093929190818152602001838380828437600092019190915250505090825250604080516020601f8c018190048102820181019092528a815291810191908b908b9081908401838280828437600092019190915250505090825250604080516020601f8a018190048102820181019092528881529181019190899089908190840183828082843760009201829052509385525050506020820181905260408201819052606082018190526080909101908152602001600081526020808201879052600160409283018190526000858152600f835292909220835181546001600160a01b0319166001600160a01b03909116178155908301519091820190611c019082613009565b5060408201516002820190611c169082613009565b5060608201516003820190611c2b9082613009565b506080820151600482015560a0820151600582015560c0820151600682015560e082015160078201805460ff19166001836002811115611c6d57611c6d612abf565b0217905550610100828101516007830180549192909161ff00191690836002811115611c9b57611c9b612abf565b02179055506101208201516008820155610140909101516009909101805460ff191691151591909117905560008b8152601060205260408120829055611ce462015180426130df565b611cee90426130f3565b604080513381526020810188905291925082918e9185917fd1949b2b2b9782887e0a544dfc02447194ea6ed9b318a0a0808d37b6fa30b025910160405180910390a4509a9950505050505050505050565b6001600160a01b03918216600090815260056020908152604080832093909416825291909152205460ff1690565b611d768161244c565b611d9657604051637e27328960e01b8152600481018290526024016106a2565b50565b600081815260046020526040902080546001600160a01b0319166001600160a01b0384169081179091558190611dce82610fe1565b6001600160a01b03167f8c5be1e5ebec7d5bd14f71427d1e84f3dd0314c0f7b2291e5b200ac8c7c3b92560405160405180910390a45050565b600260065403611e2a57604051633ee5aeb560e01b815260040160405180910390fd5b6002600655565b6000611e3d6009612544565b6000611e4860095490565b905060606001846002811115611e6057611e60612abf565b03611f06576000858152600f602052604090206002018054611e8190612eab565b80601f0160208091040260200160405190810160405280929190818152602001828054611ead90612eab565b8015611efa5780601f10611ecf57610100808354040283529160200191611efa565b820191906000526020600020905b815481529060010190602001808311611edd57829003601f168201915b50505050509050611fbc565b6002846002811115611f1a57611f1a612abf565b03611fbc576000858152600f602052604090206003018054611f3b90612eab565b80601f0160208091040260200160405190810160405280929190818152602001828054611f6790612eab565b8015611fb45780601f10611f8957610100808354040283529160200191611fb4565b820191906000526020600020905b815481529060010190602001808311611f9757829003601f168201915b505050505090505b611fc68783612561565b611fd0828261264a565b6040518060a00160405280336001600160a01b0316815260200186815260200185600281111561200257612002612abf565b8152602080820189905260006040928301819052858152600e8252829020835181546001600160a01b0319166001600160a01b0390911617815590830151600180830191909155918301516002808301805493949293909260ff1990911691849081111561207257612072612abf565b0217905550606082015160038201556080909101516004909101805460ff191660ff9092169190911790556040805183815242602082015286916001600160a01b038a16917f1d19c024934fa0f77dcd9882c16d32cc719ae6b34614fab7cfe414c24d53f647910160405180910390a35090505b949350505050565b6000806120fa83610fe1565b9050806001600160a01b0316846001600160a01b0316148061212157506121218185611d3f565b806120e65750836001600160a01b031661213a84610635565b6001600160a01b031614949350505050565b600061215782610fe1565b9050836001600160a01b0316816001600160a01b0316146121a5576040516364283d7b60e01b81526001600160a01b03808616600483015260248201849052821660448201526064016106a2565b6001600160a01b0383166121cf57604051633250574960e11b8152600060048201526024016106a2565b6121d882610fe1565b9050836001600160a01b0316816001600160a01b031614612226576040516364283d7b60e01b81526001600160a01b03808616600483015260248201849052821660448201526064016106a2565b600082815260046020908152604080832080546001600160a01b03191690556001600160a01b0387168352600390915281208054600192906122699084906130f3565b90915550506001600160a01b03808416600081815260036020908152604080832080546001019055868352600290915280822080546001600160a01b031916841790555185938816917fddf252ad1be2c89b69c2b068fc378daa952ba7f163c4a11628f55a4df523b3ef91a46117e8565b6000828152600f60205260409020600701805482919060ff1916600183600281111561230857612308612abf565b02179055506000828152600f60205260409081902060070154905183917fd5dc17d0b853b024c402202e9afb0d31d86d68c61154a50972ea8f273683885a916123569160ff16904290613106565b60405180910390a25050565b60005b815181101561137f576123908282815181106123835761238361311d565b60200260200101516124fc565b8061239a81612f2c565b915050612365565b816001600160a01b0316836001600160a01b0316036123df57604051630b61174360e31b81526001600160a01b03841660048201526024016106a2565b6001600160a01b03838116600081815260056020908152604080832094871680845294825291829020805460ff191686151590811790915591519182527f17307eab39ab6107e8899845ad3d59bd9653f200f220920489ca2b5937696c31910160405180910390a3505050565b6000908152600260205260409020546001600160a01b0316151590565b600080600183600281111561248057612480612abf565b0361249d57506000848152600f60205260409020600401546124ca565b60028360028111156124b1576124b1612abf565b036124ca57506000848152600f60205260409020600501545b6000858152600f602052604081206006015482906124e89087613133565b6124f2919061314a565b9695505050505050565b611d968161270a565b61251084848461214c565b61251c848484846127c2565b6117e857604051633250574960e11b81526001600160a01b03841660048201526024016106a2565b60018160000160008282546125599190612f45565b909155505050565b6001600160a01b03821661258b57604051633250574960e11b8152600060048201526024016106a2565b6125948161244c565b156125b5576040516339e3563760e11b8152600060048201526024016106a2565b6125be8161244c565b156125df576040516339e3563760e11b8152600060048201526024016106a2565b6001600160a01b038216600081815260036020908152604080832080546001019055848352600290915280822080546001600160a01b0319168417905551839291907fddf252ad1be2c89b69c2b068fc378daa952ba7f163c4a11628f55a4df523b3ef908290a45050565b6126538261244c565b6126b45760405162461bcd60e51b815260206004820152602c60248201527f4552433732314d657461646174613a2055524920736574206f66206e6f6e657860448201526b34b9ba32b73a103a37b5b2b760a11b60648201526084016106a2565b60008281526013602052604090206126cc8282613009565b507fda84ca2183491f179a603e877b2cb058e42195041c2b9c53d746427e519a34df82826040516126fe92919061315e565b60405180910390a15050565b600061271582610fe1565b905061272082610fe1565b600083815260046020908152604080832080546001600160a01b03191690556001600160a01b03841683526003909152812080549293506001929091906127689084906130f3565b909155505060008281526002602052604080822080546001600160a01b0319169055518391906001600160a01b038416907fddf252ad1be2c89b69c2b068fc378daa952ba7f163c4a11628f55a4df523b3ef908390a45050565b60006001600160a01b0384163b156128c457604051630a85bd0160e11b81526001600160a01b0385169063150b7a0290612806903390899088908890600401613177565b6020604051808303816000875af1925050508015612841575060408051601f3d908101601f1916820190925261283e918101906131aa565b60015b6128aa573d80801561286f576040519150601f19603f3d011682016040523d82523d6000602084013e612874565b606091505b5080516000036128a257604051633250574960e11b81526001600160a01b03861660048201526024016106a2565b805181602001fd5b6001600160e01b031916630a85bd0160e11b1490506120e6565b5060016120e6565b60405180610160016040528060006001600160a01b031681526020016060815260200160608152602001606081526020016000815260200160008152602001600081526020016000600281111561292557612925612abf565b81526020016000815260006020820181905260409091015290565b6001600160e01b031981168114611d9657600080fd5b60006020828403121561296857600080fd5b813561297381612940565b9392505050565b6000815180845260005b818110156129a057602081850181015186830182015201612984565b506000602082860101526020601f19601f83011685010191505092915050565b602081526000612973602083018461297a565b6000602082840312156129e557600080fd5b5035919050565b80356001600160a01b0381168114612a0357600080fd5b919050565b60008060408385031215612a1b57600080fd5b612a24836129ec565b946020939093013593505050565b803560ff81168114612a0357600080fd5b600080600060608486031215612a5857600080fd5b83359250612a6860208501612a32565b9150604084013590509250925092565b600060208284031215612a8a57600080fd5b612973826129ec565b600080600060608486031215612aa857600080fd5b612ab1846129ec565b9250612a68602085016129ec565b634e487b7160e01b600052602160045260246000fd5b60038110611d9657634e487b7160e01b600052602160045260246000fd5b612afc81612ad5565b9052565b60208152612b1a6020820183516001600160a01b03169052565b60006020830151610160806040850152612b3861018085018361297a565b91506040850151601f1980868503016060870152612b56848361297a565b9350606087015191508086850301608087015250612b74838261297a565b925050608085015160a085015260a085015160c085015260c085015160e085015260e0850151610100612ba981870183612af3565b8601519050610120612bbd86820183612af3565b8601516101408681019190915290950151151593019290925250919050565b60008060408385031215612bef57600080fd5b82359150612bff60208401612a32565b90509250929050565b8015158114611d9657600080fd5b60008060408385031215612c2957600080fd5b612c32836129ec565b91506020830135612c4281612c08565b809150509250929050565b634e487b7160e01b600052604160045260246000fd5b60008060008060808587031215612c7957600080fd5b612c82856129ec565b9350612c90602086016129ec565b925060408501359150606085013567ffffffffffffffff80821115612cb457600080fd5b818701915087601f830112612cc857600080fd5b813581811115612cda57612cda612c4d565b604051601f8201601f19908116603f01168101908382118183101715612d0257612d02612c4d565b816040528281528a6020848701011115612d1b57600080fd5b82602086016020830137600060208483010152809550505050505092959194509250565b81516001600160a01b0316815260208083015190820152604082015160a0820190612d6981612ad5565b806040840152506060830151606083015260ff608084015116608083015292915050565b60008083601f840112612d9f57600080fd5b50813567ffffffffffffffff811115612db757600080fd5b602083019150836020828501011115612dcf57600080fd5b9250929050565b60008060008060008060008060a0898b031215612df257600080fd5b88359750602089013567ffffffffffffffff80821115612e1157600080fd5b612e1d8c838d01612d8d565b909950975060408b0135915080821115612e3657600080fd5b612e428c838d01612d8d565b909750955060608b0135915080821115612e5b57600080fd5b50612e688b828c01612d8d565b999c989b50969995989497949560800135949350505050565b60008060408385031215612e9457600080fd5b612e9d836129ec565b9150612bff602084016129ec565b600181811c90821680612ebf57607f821691505b602082108103610fdb57634e487b7160e01b600052602260045260246000fd5b6020808252601d908201527f6f6e20636861696e20666967687420646f6573206e6f74206578697374000000604082015260600190565b634e487b7160e01b600052601160045260246000fd5b600060018201612f3e57612f3e612f16565b5060010190565b8082018082111561059d5761059d612f16565b600060208284031215612f6a57600080fd5b815161297381612c08565b60208082526013908201527231b0b63632b91034b9903737ba1037bbb732b960691b604082015260600190565b600060208284031215612fb457600080fd5b5051919050565b601f8211156106f557600081815260208120601f850160051c81016020861015612fe25750805b601f850160051c820191505b8181101561300157828155600101612fee565b505050505050565b815167ffffffffffffffff81111561302357613023612c4d565b613037816130318454612eab565b84612fbb565b602080601f83116001811461306c57600084156130545750858301515b600019600386901b1c1916600185901b178555613001565b600085815260208120601f198616915b8281101561309b5788860151825594840194600190910190840161307c565b50858210156130b95787850151600019600388901b60f8161c191681555b5050505050600190811b01905550565b634e487b7160e01b600052601260045260246000fd5b6000826130ee576130ee6130c9565b500690565b8181038181111561059d5761059d612f16565b6040810161311384612ad5565b9281526020015290565b634e487b7160e01b600052603260045260246000fd5b808202811582820484141761059d5761059d612f16565b600082613159576131596130c9565b500490565b8281526040602082015260006120e6604083018461297a565b6001600160a01b03858116825284166020820152604081018390526080606082018190526000906124f29083018461297a565b6000602082840312156131bc57600080fd5b81516129738161294056fea2646970667358221220bfe81af17dad3d0f5702ecb15ac1458985b365c4c61eb28ce6db0fc9a457de5f64736f6c63430008120033",
  "immutableReferences": {},
  "source": "/**\r\n *Submitted for verification at polygonscan.com on 2023-09-12\r\n*/\r\n\r\n// SPDX-License-Identifier: MIT\r\npragma solidity ^0.8.18;\r\n\r\ncontract ERC20 {\r\n\r\n    mapping (address => uint) public  balanceOf;\r\n    /**\r\n    * @dev Sets `amount` as the allowance of `spender` over the caller's tokens.\r\n    *\r\n    * Returns a boolean value indicating whether the operation succeeded.\r\n    *\r\n    * IMPORTANT: Beware that changing an allowance with this method brings the risk\r\n    * that someone may use both the old and the new allowance by unfortunate\r\n    * transaction ordering. One possible solution to mitigate this race\r\n    * condition is to first reduce the spender's allowance to 0 and set the\r\n    * desired value afterwards:\r\n    * https://github.com/ethereum/EIPs/issues/20#issuecomment-263524729\r\n    *\r\n    * Emits an {Approval} event.\r\n    */\r\n    function approve(address spender, uint256 amount) public returns (bool) {}\r\n\r\n    // funds goes as `msg.value`\r\n    function deposit() public payable {}\r\n\r\n    function transfer(address dst, uint amount) public returns (bool) {}\r\n}\r\n\r\ninterface IERC20 {\r\n    /**\r\n     * @dev Emitted when `value` tokens are moved from one account (`from`) to\r\n     * another (`to`).\r\n     *\r\n     * Note that `value` may be zero.\r\n     */\r\n    event Transfer(address indexed from, address indexed to, uint256 value);\r\n\r\n    /**\r\n     * @dev Emitted when the allowance of a `spender` for an `owner` is set by\r\n     * a call to {approve}. `value` is the new allowance.\r\n     */\r\n    event Approval(address indexed owner, address indexed spender, uint256 value);\r\n\r\n    /**\r\n     * @dev Returns the value of tokens in existence.\r\n     */\r\n    function totalSupply() external view returns (uint256);\r\n\r\n    /**\r\n     * @dev Returns the value of tokens owned by `account`.\r\n     */\r\n    function balanceOf(address account) external view returns (uint256);\r\n\r\n    /**\r\n     * @dev Moves a `value` amount of tokens from the caller's account to `to`.\r\n     *\r\n     * Returns a boolean value indicating whether the operation succeeded.\r\n     *\r\n     * Emits a {Transfer} event.\r\n     */\r\n    function transfer(address to, uint256 value) external returns (bool);\r\n\r\n    /**\r\n     * @dev Returns the remaining number of tokens that `spender` will be\r\n     * allowed to spend on behalf of `owner` through {transferFrom}. This is\r\n     * zero by default.\r\n     *\r\n     * This value changes when {approve} or {transferFrom} are called.\r\n     */\r\n    function allowance(address owner, address spender) external view returns (uint256);\r\n\r\n    /**\r\n     * @dev Sets a `value` amount of tokens as the allowance of `spender` over the\r\n     * caller's tokens.\r\n     *\r\n     * Returns a boolean value indicating whether the operation succeeded.\r\n     *\r\n     * IMPORTANT: Beware that changing an allowance with this method brings the risk\r\n     * that someone may use both the old and the new allowance by unfortunate\r\n     * transaction ordering. One possible solution to mitigate this race\r\n     * condition is to first reduce the spender's allowance to 0 and set the\r\n     * desired value afterwards:\r\n     * https://github.com/ethereum/EIPs/issues/20#issuecomment-263524729\r\n     *\r\n     * Emits an {Approval} event.\r\n     */\r\n    function approve(address spender, uint256 value) external returns (bool);\r\n\r\n    /**\r\n     * @dev Moves a `value` amount of tokens from `from` to `to` using the\r\n     * allowance mechanism. `value` is then deducted from the caller's\r\n     * allowance.\r\n     *\r\n     * Returns a boolean value indicating whether the operation succeeded.\r\n     *\r\n     * Emits a {Transfer} event.\r\n     */\r\n    function transferFrom(address from, address to, uint256 value) external returns (bool);\r\n}\r\n\r\n/**\r\n * @dev Interface of the ERC165 standard, as defined in the\r\n * https://eips.ethereum.org/EIPS/eip-165[EIP].\r\n *\r\n * Implementers can declare support of contract interfaces, which can then be\r\n * queried by others ({ERC165Checker}).\r\n *\r\n * For an implementation, see {ERC165}.\r\n */\r\ninterface IERC165 {\r\n    /**\r\n     * @dev Returns true if this contract implements the interface defined by\r\n     * `interfaceId`. See the corresponding\r\n     * https://eips.ethereum.org/EIPS/eip-165#how-interfaces-are-identified[EIP section]\r\n     * to learn more about how these ids are created.\r\n     *\r\n     * This function call must use less than 30 000 gas.\r\n     */\r\n    function supportsInterface(bytes4 interfaceId) external view returns (bool);\r\n}\r\n\r\n/**\r\n * @dev Required interface of an ERC721 compliant contract.\r\n */\r\ninterface IERC721 is IERC165 {\r\n    /**\r\n     * @dev Emitted when `tokenId` token is transferred from `from` to `to`.\r\n     */\r\n    event Transfer(address indexed from, address indexed to, uint256 indexed tokenId);\r\n\r\n    /**\r\n     * @dev Emitted when `owner` enables `approved` to manage the `tokenId` token.\r\n     */\r\n    event Approval(address indexed owner, address indexed approved, uint256 indexed tokenId);\r\n\r\n    /**\r\n     * @dev Emitted when `owner` enables or disables (`approved`) `operator` to manage all of its assets.\r\n     */\r\n    event ApprovalForAll(address indexed owner, address indexed operator, bool approved);\r\n\r\n    /**\r\n     * @dev Returns the number of tokens in ``owner``'s account.\r\n     */\r\n    function balanceOf(address owner) external view returns (uint256 balance);\r\n\r\n    /**\r\n     * @dev Returns the owner of the `tokenId` token.\r\n     *\r\n     * Requirements:\r\n     *\r\n     * - `tokenId` must exist.\r\n     */\r\n    function ownerOf(uint256 tokenId) external view returns (address owner);\r\n\r\n    /**\r\n     * @dev Safely transfers `tokenId` token from `from` to `to`.\r\n     *\r\n     * Requirements:\r\n     *\r\n     * - `from` cannot be the zero address.\r\n     * - `to` cannot be the zero address.\r\n     * - `tokenId` token must exist and be owned by `from`.\r\n     * - If the caller is not `from`, it must be approved to move this token by either {approve} or {setApprovalForAll}.\r\n     * - If `to` refers to a smart contract, it must implement {IERC721Receiver-onERC721Received}, which is called upon a safe transfer.\r\n     *\r\n     * Emits a {Transfer} event.\r\n     */\r\n    function safeTransferFrom(address from, address to, uint256 tokenId, bytes calldata data) external;\r\n\r\n    /**\r\n     * @dev Safely transfers `tokenId` token from `from` to `to`, checking first that contract recipients\r\n     * are aware of the ERC721 protocol to prevent tokens from being forever locked.\r\n     *\r\n     * Requirements:\r\n     *\r\n     * - `from` cannot be the zero address.\r\n     * - `to` cannot be the zero address.\r\n     * - `tokenId` token must exist and be owned by `from`.\r\n     * - If the caller is not `from`, it must have been allowed to move this token by either {approve} or {setApprovalForAll}.\r\n     * - If `to` refers to a smart contract, it must implement {IERC721Receiver-onERC721Received}, which is called upon a safe transfer.\r\n     *\r\n     * Emits a {Transfer} event.\r\n     */\r\n    function safeTransferFrom(address from, address to, uint256 tokenId) external;\r\n\r\n    /**\r\n     * @dev Transfers `tokenId` token from `from` to `to`.\r\n     *\r\n     * WARNING: Note that the caller is responsible to confirm that the recipient is capable of receiving ERC721\r\n     * or else they may be permanently lost. Usage of {safeTransferFrom} prevents loss, though the caller must\r\n     * understand this adds an external call which potentially creates a reentrancy vulnerability.\r\n     *\r\n     * Requirements:\r\n     *\r\n     * - `from` cannot be the zero address.\r\n     * - `to` cannot be the zero address.\r\n     * - `tokenId` token must be owned by `from`.\r\n     * - If the caller is not `from`, it must be approved to move this token by either {approve} or {setApprovalForAll}.\r\n     *\r\n     * Emits a {Transfer} event.\r\n     */\r\n    function transferFrom(address from, address to, uint256 tokenId) external;\r\n\r\n    /**\r\n     * @dev Gives permission to `to` to transfer `tokenId` token to another account.\r\n     * The approval is cleared when the token is transferred.\r\n     *\r\n     * Only a single account can be approved at a time, so approving the zero address clears previous approvals.\r\n     *\r\n     * Requirements:\r\n     *\r\n     * - The caller must own the token or be an approved operator.\r\n     * - `tokenId` must exist.\r\n     *\r\n     * Emits an {Approval} event.\r\n     */\r\n    function approve(address to, uint256 tokenId) external;\r\n\r\n    /**\r\n     * @dev Approve or remove `operator` as an operator for the caller.\r\n     * Operators can call {transferFrom} or {safeTransferFrom} for any token owned by the caller.\r\n     *\r\n     * Requirements:\r\n     *\r\n     * - The `operator` cannot be the caller.\r\n     *\r\n     * Emits an {ApprovalForAll} event.\r\n     */\r\n    function setApprovalForAll(address operator, bool approved) external;\r\n\r\n    /**\r\n     * @dev Returns the account approved for `tokenId` token.\r\n     *\r\n     * Requirements:\r\n     *\r\n     * - `tokenId` must exist.\r\n     */\r\n    function getApproved(uint256 tokenId) external view returns (address operator);\r\n\r\n    /**\r\n     * @dev Returns if the `operator` is allowed to manage all of the assets of `owner`.\r\n     *\r\n     * See {setApprovalForAll}\r\n     */\r\n    function isApprovedForAll(address owner, address operator) external view returns (bool);\r\n}\r\n\r\n/**\r\n * @title ERC721 token receiver interface\r\n * @dev Interface for any contract that wants to support safeTransfers\r\n * from ERC721 asset contracts.\r\n */\r\ninterface IERC721Receiver {\r\n    /**\r\n     * @dev Whenever an {IERC721} `tokenId` token is transferred to this contract via {IERC721-safeTransferFrom}\r\n     * by `operator` from `from`, this function is called.\r\n     *\r\n     * It must return its Solidity selector to confirm the token transfer.\r\n     * If any other value is returned or the interface is not implemented by the recipient, the transfer will be reverted.\r\n     *\r\n     * The selector can be obtained in Solidity with `IERC721Receiver.onERC721Received.selector`.\r\n     */\r\n    function onERC721Received(\r\n        address operator,\r\n        address from,\r\n        uint256 tokenId,\r\n        bytes calldata data\r\n    ) external returns (bytes4);\r\n}\r\n\r\n/**\r\n * @title ERC-721 Non-Fungible Token Standard, optional metadata extension\r\n * @dev See https://eips.ethereum.org/EIPS/eip-721\r\n */\r\ninterface IERC721Metadata is IERC721 {\r\n    /**\r\n     * @dev Returns the token collection name.\r\n     */\r\n    function name() external view returns (string memory);\r\n\r\n    /**\r\n     * @dev Returns the token collection symbol.\r\n     */\r\n    function symbol() external view returns (string memory);\r\n\r\n    /**\r\n     * @dev Returns the Uniform Resource Identifier (URI) for `tokenId` token.\r\n     */\r\n    function tokenURI(uint256 tokenId) external view returns (string memory);\r\n}\r\n\r\n/**\r\n * @dev Provides information about the current execution context, including the\r\n * sender of the transaction and its data. While these are generally available\r\n * via msg.sender and msg.data, they should not be accessed in such a direct\r\n * manner, since when dealing with meta-transactions the account sending and\r\n * paying for execution may not be the actual sender (as far as an application\r\n * is concerned).\r\n *\r\n * This contract is only required for intermediate, library-like contracts.\r\n */\r\nabstract contract Context {\r\n    function _msgSender() internal view virtual returns (address) {\r\n        return msg.sender;\r\n    }\r\n\r\n    function _msgData() internal view virtual returns (bytes calldata) {\r\n        return msg.data;\r\n    }\r\n}\r\n\r\n/**\r\n * @dev Implementation of the {IERC165} interface.\r\n *\r\n * Contracts that want to implement ERC165 should inherit from this contract and override {supportsInterface} to check\r\n * for the additional interface id that will be supported. For example:\r\n *\r\n * ```solidity\r\n * function supportsInterface(bytes4 interfaceId) public view virtual override returns (bool) {\r\n *     return interfaceId == type(MyInterface).interfaceId || super.supportsInterface(interfaceId);\r\n * }\r\n * ```\r\n */\r\nabstract contract ERC165 is IERC165 {\r\n    /**\r\n     * @dev See {IERC165-supportsInterface}.\r\n     */\r\n    function supportsInterface(bytes4 interfaceId) public view virtual returns (bool) {\r\n        return interfaceId == type(IERC165).interfaceId;\r\n    }\r\n}\r\n\r\n/**\r\n * @dev Standard ERC721 Errors\r\n * Interface of the ERC6093 custom errors for ERC721 tokens\r\n * as defined in https://eips.ethereum.org/EIPS/eip-6093\r\n */\r\ninterface IERC721Errors {\r\n    /**\r\n     * @dev Indicates that an address can't be an owner. For example, `address(0)` is a forbidden owner in EIP-20.\r\n     * Used in balance queries.\r\n     * @param owner Address of the current owner of a token.\r\n     */\r\n    error ERC721InvalidOwner(address owner);\r\n\r\n    /**\r\n     * @dev Indicates a `tokenId` whose `owner` is the zero address.\r\n     * @param tokenId Identifier number of a token.\r\n     */\r\n    error ERC721NonexistentToken(uint256 tokenId);\r\n\r\n    /**\r\n     * @dev Indicates an error related to the ownership over a particular token. Used in transfers.\r\n     * @param sender Address whose tokens are being transferred.\r\n     * @param tokenId Identifier number of a token.\r\n     * @param owner Address of the current owner of a token.\r\n     */\r\n    error ERC721IncorrectOwner(address sender, uint256 tokenId, address owner);\r\n\r\n    /**\r\n     * @dev Indicates a failure with the token `sender`. Used in transfers.\r\n     * @param sender Address whose tokens are being transferred.\r\n     */\r\n    error ERC721InvalidSender(address sender);\r\n\r\n    /**\r\n     * @dev Indicates a failure with the token `receiver`. Used in transfers.\r\n     * @param receiver Address to which tokens are being transferred.\r\n     */\r\n    error ERC721InvalidReceiver(address receiver);\r\n\r\n    /**\r\n     * @dev Indicates a failure with the `operator`s approval. Used in transfers.\r\n     * @param operator Address that may be allowed to operate on tokens without being their owner.\r\n     * @param tokenId Identifier number of a token.\r\n     */\r\n    error ERC721InsufficientApproval(address operator, uint256 tokenId);\r\n\r\n    /**\r\n     * @dev Indicates a failure with the `approver` of a token to be approved. Used in approvals.\r\n     * @param approver Address initiating an approval operation.\r\n     */\r\n    error ERC721InvalidApprover(address approver);\r\n\r\n    /**\r\n     * @dev Indicates a failure with the `operator` to be approved. Used in approvals.\r\n     * @param operator Address that may be allowed to operate on tokens without being their owner.\r\n     */\r\n    error ERC721InvalidOperator(address operator);\r\n}\r\n\r\n/**\r\n * @dev Standard math utilities missing in the Solidity language.\r\n */\r\nlibrary Math {\r\n    /**\r\n     * @dev Muldiv operation overflow.\r\n     */\r\n    error MathOverflowedMulDiv();\r\n\r\n    enum Rounding {\r\n        Down, // Toward negative infinity\r\n        Up, // Toward infinity\r\n        Zero // Toward zero\r\n    }\r\n\r\n    /**\r\n     * @dev Returns the addition of two unsigned integers, with an overflow flag.\r\n     *\r\n     * _Available since v5.0._\r\n     */\r\n    function tryAdd(uint256 a, uint256 b) internal pure returns (bool, uint256) {\r\n        unchecked {\r\n            uint256 c = a + b;\r\n            if (c < a) return (false, 0);\r\n            return (true, c);\r\n        }\r\n    }\r\n\r\n    /**\r\n     * @dev Returns the subtraction of two unsigned integers, with an overflow flag.\r\n     *\r\n     * _Available since v5.0._\r\n     */\r\n    function trySub(uint256 a, uint256 b) internal pure returns (bool, uint256) {\r\n        unchecked {\r\n            if (b > a) return (false, 0);\r\n            return (true, a - b);\r\n        }\r\n    }\r\n\r\n    /**\r\n     * @dev Returns the multiplication of two unsigned integers, with an overflow flag.\r\n     *\r\n     * _Available since v5.0._\r\n     */\r\n    function tryMul(uint256 a, uint256 b) internal pure returns (bool, uint256) {\r\n        unchecked {\r\n            // Gas optimization: this is cheaper than requiring 'a' not being zero, but the\r\n            // benefit is lost if 'b' is also tested.\r\n            // See: https://github.com/OpenZeppelin/openzeppelin-contracts/pull/522\r\n            if (a == 0) return (true, 0);\r\n            uint256 c = a * b;\r\n            if (c / a != b) return (false, 0);\r\n            return (true, c);\r\n        }\r\n    }\r\n\r\n    /**\r\n     * @dev Returns the division of two unsigned integers, with a division by zero flag.\r\n     *\r\n     * _Available since v5.0._\r\n     */\r\n    function tryDiv(uint256 a, uint256 b) internal pure returns (bool, uint256) {\r\n        unchecked {\r\n            if (b == 0) return (false, 0);\r\n            return (true, a / b);\r\n        }\r\n    }\r\n\r\n    /**\r\n     * @dev Returns the remainder of dividing two unsigned integers, with a division by zero flag.\r\n     *\r\n     * _Available since v5.0._\r\n     */\r\n    function tryMod(uint256 a, uint256 b) internal pure returns (bool, uint256) {\r\n        unchecked {\r\n            if (b == 0) return (false, 0);\r\n            return (true, a % b);\r\n        }\r\n    }\r\n\r\n    /**\r\n     * @dev Returns the largest of two numbers.\r\n     */\r\n    function max(uint256 a, uint256 b) internal pure returns (uint256) {\r\n        return a > b ? a : b;\r\n    }\r\n\r\n    /**\r\n     * @dev Returns the smallest of two numbers.\r\n     */\r\n    function min(uint256 a, uint256 b) internal pure returns (uint256) {\r\n        return a < b ? a : b;\r\n    }\r\n\r\n    /**\r\n     * @dev Returns the average of two numbers. The result is rounded towards\r\n     * zero.\r\n     */\r\n    function average(uint256 a, uint256 b) internal pure returns (uint256) {\r\n        // (a + b) / 2 can overflow.\r\n        return (a & b) + (a ^ b) / 2;\r\n    }\r\n\r\n    /**\r\n     * @dev Returns the ceiling of the division of two numbers.\r\n     *\r\n     * This differs from standard division with `/` in that it rounds up instead\r\n     * of rounding down.\r\n     */\r\n    function ceilDiv(uint256 a, uint256 b) internal pure returns (uint256) {\r\n        if (b == 0) {\r\n            // Guarantee the same behavior as in a regular Solidity division.\r\n            return a / b;\r\n        }\r\n\r\n        // (a + b - 1) / b can overflow on addition, so we distribute.\r\n        return a == 0 ? 0 : (a - 1) / b + 1;\r\n    }\r\n\r\n    /**\r\n     * @notice Calculates floor(x * y / denominator) with full precision. Throws if result overflows a uint256 or denominator == 0\r\n     * @dev Original credit to Remco Bloemen under MIT license (https://xn--2-umb.com/21/muldiv)\r\n     * with further edits by Uniswap Labs also under MIT license.\r\n     */\r\n    function mulDiv(uint256 x, uint256 y, uint256 denominator) internal pure returns (uint256 result) {\r\n        unchecked {\r\n            // 512-bit multiply [prod1 prod0] = x * y. Compute the product mod 2^256 and mod 2^256 - 1, then use\r\n            // use the Chinese Remainder Theorem to reconstruct the 512 bit result. The result is stored in two 256\r\n            // variables such that product = prod1 * 2^256 + prod0.\r\n            uint256 prod0; // Least significant 256 bits of the product\r\n            uint256 prod1; // Most significant 256 bits of the product\r\n            assembly {\r\n                let mm := mulmod(x, y, not(0))\r\n                prod0 := mul(x, y)\r\n                prod1 := sub(sub(mm, prod0), lt(mm, prod0))\r\n            }\r\n\r\n            // Handle non-overflow cases, 256 by 256 division.\r\n            if (prod1 == 0) {\r\n                // Solidity will revert if denominator == 0, unlike the div opcode on its own.\r\n                // The surrounding unchecked block does not change this fact.\r\n                // See https://docs.soliditylang.org/en/latest/control-structures.html#checked-or-unchecked-arithmetic.\r\n                return prod0 / denominator;\r\n            }\r\n\r\n            // Make sure the result is less than 2^256. Also prevents denominator == 0.\r\n            if (denominator <= prod1) {\r\n                revert MathOverflowedMulDiv();\r\n            }\r\n\r\n            ///////////////////////////////////////////////\r\n            // 512 by 256 division.\r\n            ///////////////////////////////////////////////\r\n\r\n            // Make division exact by subtracting the remainder from [prod1 prod0].\r\n            uint256 remainder;\r\n            assembly {\r\n                // Compute remainder using mulmod.\r\n                remainder := mulmod(x, y, denominator)\r\n\r\n                // Subtract 256 bit number from 512 bit number.\r\n                prod1 := sub(prod1, gt(remainder, prod0))\r\n                prod0 := sub(prod0, remainder)\r\n            }\r\n\r\n            // Factor powers of two out of denominator and compute largest power of two divisor of denominator. Always >= 1.\r\n            // See https://cs.stackexchange.com/q/138556/92363.\r\n\r\n            // Does not overflow because the denominator cannot be zero at this stage in the function.\r\n            uint256 twos = denominator & (~denominator + 1);\r\n            assembly {\r\n                // Divide denominator by twos.\r\n                denominator := div(denominator, twos)\r\n\r\n                // Divide [prod1 prod0] by twos.\r\n                prod0 := div(prod0, twos)\r\n\r\n                // Flip twos such that it is 2^256 / twos. If twos is zero, then it becomes one.\r\n                twos := add(div(sub(0, twos), twos), 1)\r\n            }\r\n\r\n            // Shift in bits from prod1 into prod0.\r\n            prod0 |= prod1 * twos;\r\n\r\n            // Invert denominator mod 2^256. Now that denominator is an odd number, it has an inverse modulo 2^256 such\r\n            // that denominator * inv = 1 mod 2^256. Compute the inverse by starting with a seed that is correct for\r\n            // four bits. That is, denominator * inv = 1 mod 2^4.\r\n            uint256 inverse = (3 * denominator) ^ 2;\r\n\r\n            // Use the Newton-Raphson iteration to improve the precision. Thanks to Hensel's lifting lemma, this also works\r\n            // in modular arithmetic, doubling the correct bits in each step.\r\n            inverse *= 2 - denominator * inverse; // inverse mod 2^8\r\n            inverse *= 2 - denominator * inverse; // inverse mod 2^16\r\n            inverse *= 2 - denominator * inverse; // inverse mod 2^32\r\n            inverse *= 2 - denominator * inverse; // inverse mod 2^64\r\n            inverse *= 2 - denominator * inverse; // inverse mod 2^128\r\n            inverse *= 2 - denominator * inverse; // inverse mod 2^256\r\n\r\n            // Because the division is now exact we can divide by multiplying with the modular inverse of denominator.\r\n            // This will give us the correct result modulo 2^256. Since the preconditions guarantee that the outcome is\r\n            // less than 2^256, this is the final result. We don't need to compute the high bits of the result and prod1\r\n            // is no longer required.\r\n            result = prod0 * inverse;\r\n            return result;\r\n        }\r\n    }\r\n\r\n    /**\r\n     * @notice Calculates x * y / denominator with full precision, following the selected rounding direction.\r\n     */\r\n    function mulDiv(uint256 x, uint256 y, uint256 denominator, Rounding rounding) internal pure returns (uint256) {\r\n        uint256 result = mulDiv(x, y, denominator);\r\n        if (rounding == Rounding.Up && mulmod(x, y, denominator) > 0) {\r\n            result += 1;\r\n        }\r\n        return result;\r\n    }\r\n\r\n    /**\r\n     * @dev Returns the square root of a number. If the number is not a perfect square, the value is rounded down.\r\n     *\r\n     * Inspired by Henry S. Warren, Jr.'s \"Hacker's Delight\" (Chapter 11).\r\n     */\r\n    function sqrt(uint256 a) internal pure returns (uint256) {\r\n        if (a == 0) {\r\n            return 0;\r\n        }\r\n\r\n        // For our first guess, we get the biggest power of 2 which is smaller than the square root of the target.\r\n        //\r\n        // We know that the \"msb\" (most significant bit) of our target number `a` is a power of 2 such that we have\r\n        // `msb(a) <= a < 2*msb(a)`. This value can be written `msb(a)=2**k` with `k=log2(a)`.\r\n        //\r\n        // This can be rewritten `2**log2(a) <= a < 2**(log2(a) + 1)`\r\n        //  `sqrt(2**k) <= sqrt(a) < sqrt(2**(k+1))`\r\n        //  `2**(k/2) <= sqrt(a) < 2**((k+1)/2) <= 2**(k/2 + 1)`\r\n        //\r\n        // Consequently, `2**(log2(a) / 2)` is a good first approximation of `sqrt(a)` with at least 1 correct bit.\r\n        uint256 result = 1 << (log2(a) >> 1);\r\n\r\n        // At this point `result` is an estimation with one bit of precision. We know the true value is a uint128,\r\n        // since it is the square root of a uint256. Newton's method converges quadratically (precision doubles at\r\n        // every iteration). We thus need at most 7 iteration to turn our partial result with one bit of precision\r\n        // into the expected uint128 result.\r\n        unchecked {\r\n            result = (result + a / result) >> 1;\r\n            result = (result + a / result) >> 1;\r\n            result = (result + a / result) >> 1;\r\n            result = (result + a / result) >> 1;\r\n            result = (result + a / result) >> 1;\r\n            result = (result + a / result) >> 1;\r\n            result = (result + a / result) >> 1;\r\n            return min(result, a / result);\r\n        }\r\n    }\r\n\r\n    /**\r\n     * @notice Calculates sqrt(a), following the selected rounding direction.\r\n     */\r\n    function sqrt(uint256 a, Rounding rounding) internal pure returns (uint256) {\r\n        unchecked {\r\n            uint256 result = sqrt(a);\r\n            return result + (rounding == Rounding.Up && result * result < a ? 1 : 0);\r\n        }\r\n    }\r\n\r\n    /**\r\n     * @dev Return the log in base 2, rounded down, of a positive value.\r\n     * Returns 0 if given 0.\r\n     */\r\n    function log2(uint256 value) internal pure returns (uint256) {\r\n        uint256 result = 0;\r\n        unchecked {\r\n            if (value >> 128 > 0) {\r\n                value >>= 128;\r\n                result += 128;\r\n            }\r\n            if (value >> 64 > 0) {\r\n                value >>= 64;\r\n                result += 64;\r\n            }\r\n            if (value >> 32 > 0) {\r\n                value >>= 32;\r\n                result += 32;\r\n            }\r\n            if (value >> 16 > 0) {\r\n                value >>= 16;\r\n                result += 16;\r\n            }\r\n            if (value >> 8 > 0) {\r\n                value >>= 8;\r\n                result += 8;\r\n            }\r\n            if (value >> 4 > 0) {\r\n                value >>= 4;\r\n                result += 4;\r\n            }\r\n            if (value >> 2 > 0) {\r\n                value >>= 2;\r\n                result += 2;\r\n            }\r\n            if (value >> 1 > 0) {\r\n                result += 1;\r\n            }\r\n        }\r\n        return result;\r\n    }\r\n\r\n    /**\r\n     * @dev Return the log in base 2, following the selected rounding direction, of a positive value.\r\n     * Returns 0 if given 0.\r\n     */\r\n    function log2(uint256 value, Rounding rounding) internal pure returns (uint256) {\r\n        unchecked {\r\n            uint256 result = log2(value);\r\n            return result + (rounding == Rounding.Up && 1 << result < value ? 1 : 0);\r\n        }\r\n    }\r\n\r\n    /**\r\n     * @dev Return the log in base 10, rounded down, of a positive value.\r\n     * Returns 0 if given 0.\r\n     */\r\n    function log10(uint256 value) internal pure returns (uint256) {\r\n        uint256 result = 0;\r\n        unchecked {\r\n            if (value >= 10 ** 64) {\r\n                value /= 10 ** 64;\r\n                result += 64;\r\n            }\r\n            if (value >= 10 ** 32) {\r\n                value /= 10 ** 32;\r\n                result += 32;\r\n            }\r\n            if (value >= 10 ** 16) {\r\n                value /= 10 ** 16;\r\n                result += 16;\r\n            }\r\n            if (value >= 10 ** 8) {\r\n                value /= 10 ** 8;\r\n                result += 8;\r\n            }\r\n            if (value >= 10 ** 4) {\r\n                value /= 10 ** 4;\r\n                result += 4;\r\n            }\r\n            if (value >= 10 ** 2) {\r\n                value /= 10 ** 2;\r\n                result += 2;\r\n            }\r\n            if (value >= 10 ** 1) {\r\n                result += 1;\r\n            }\r\n        }\r\n        return result;\r\n    }\r\n\r\n    /**\r\n     * @dev Return the log in base 10, following the selected rounding direction, of a positive value.\r\n     * Returns 0 if given 0.\r\n     */\r\n    function log10(uint256 value, Rounding rounding) internal pure returns (uint256) {\r\n        unchecked {\r\n            uint256 result = log10(value);\r\n            return result + (rounding == Rounding.Up && 10 ** result < value ? 1 : 0);\r\n        }\r\n    }\r\n\r\n    /**\r\n     * @dev Return the log in base 256, rounded down, of a positive value.\r\n     * Returns 0 if given 0.\r\n     *\r\n     * Adding one to the result gives the number of pairs of hex symbols needed to represent `value` as a hex string.\r\n     */\r\n    function log256(uint256 value) internal pure returns (uint256) {\r\n        uint256 result = 0;\r\n        unchecked {\r\n            if (value >> 128 > 0) {\r\n                value >>= 128;\r\n                result += 16;\r\n            }\r\n            if (value >> 64 > 0) {\r\n                value >>= 64;\r\n                result += 8;\r\n            }\r\n            if (value >> 32 > 0) {\r\n                value >>= 32;\r\n                result += 4;\r\n            }\r\n            if (value >> 16 > 0) {\r\n                value >>= 16;\r\n                result += 2;\r\n            }\r\n            if (value >> 8 > 0) {\r\n                result += 1;\r\n            }\r\n        }\r\n        return result;\r\n    }\r\n\r\n    /**\r\n     * @dev Return the log in base 256, following the selected rounding direction, of a positive value.\r\n     * Returns 0 if given 0.\r\n     */\r\n    function log256(uint256 value, Rounding rounding) internal pure returns (uint256) {\r\n        unchecked {\r\n            uint256 result = log256(value);\r\n            return result + (rounding == Rounding.Up && 1 << (result << 3) < value ? 1 : 0);\r\n        }\r\n    }\r\n}\r\n\r\n/**\r\n * @dev Standard signed math utilities missing in the Solidity language.\r\n */\r\nlibrary SignedMath {\r\n    /**\r\n     * @dev Returns the largest of two signed numbers.\r\n     */\r\n    function max(int256 a, int256 b) internal pure returns (int256) {\r\n        return a > b ? a : b;\r\n    }\r\n\r\n    /**\r\n     * @dev Returns the smallest of two signed numbers.\r\n     */\r\n    function min(int256 a, int256 b) internal pure returns (int256) {\r\n        return a < b ? a : b;\r\n    }\r\n\r\n    /**\r\n     * @dev Returns the average of two signed numbers without overflow.\r\n     * The result is rounded towards zero.\r\n     */\r\n    function average(int256 a, int256 b) internal pure returns (int256) {\r\n        // Formula from the book \"Hacker's Delight\"\r\n        int256 x = (a & b) + ((a ^ b) >> 1);\r\n        return x + (int256(uint256(x) >> 255) & (a ^ b));\r\n    }\r\n\r\n    /**\r\n     * @dev Returns the absolute unsigned value of a signed value.\r\n     */\r\n    function abs(int256 n) internal pure returns (uint256) {\r\n        unchecked {\r\n            // must be unchecked in order to support `n = type(int256).min`\r\n            return uint256(n >= 0 ? n : -n);\r\n        }\r\n    }\r\n}\r\n\r\n/**\r\n * @dev String operations.\r\n */\r\nlibrary Strings {\r\n    bytes16 private constant _SYMBOLS = \"0123456789abcdef\";\r\n    uint8 private constant _ADDRESS_LENGTH = 20;\r\n\r\n    /**\r\n     * @dev The `value` string doesn't fit in the specified `length`.\r\n     */\r\n    error StringsInsufficientHexLength(uint256 value, uint256 length);\r\n\r\n    /**\r\n     * @dev Converts a `uint256` to its ASCII `string` decimal representation.\r\n     */\r\n    function toString(uint256 value) internal pure returns (string memory) {\r\n        unchecked {\r\n            uint256 length = Math.log10(value) + 1;\r\n            string memory buffer = new string(length);\r\n            uint256 ptr;\r\n            /// @solidity memory-safe-assembly\r\n            assembly {\r\n                ptr := add(buffer, add(32, length))\r\n            }\r\n            while (true) {\r\n                ptr--;\r\n                /// @solidity memory-safe-assembly\r\n                assembly {\r\n                    mstore8(ptr, byte(mod(value, 10), _SYMBOLS))\r\n                }\r\n                value /= 10;\r\n                if (value == 0) break;\r\n            }\r\n            return buffer;\r\n        }\r\n    }\r\n\r\n    /**\r\n     * @dev Converts a `int256` to its ASCII `string` decimal representation.\r\n     */\r\n    function toStringSigned(int256 value) internal pure returns (string memory) {\r\n        return string.concat(value < 0 ? \"-\" : \"\", toString(SignedMath.abs(value)));\r\n    }\r\n\r\n    /**\r\n     * @dev Converts a `uint256` to its ASCII `string` hexadecimal representation.\r\n     */\r\n    function toHexString(uint256 value) internal pure returns (string memory) {\r\n        unchecked {\r\n            return toHexString(value, Math.log256(value) + 1);\r\n        }\r\n    }\r\n\r\n    /**\r\n     * @dev Converts a `uint256` to its ASCII `string` hexadecimal representation with fixed length.\r\n     */\r\n    function toHexString(uint256 value, uint256 length) internal pure returns (string memory) {\r\n        uint256 localValue = value;\r\n        bytes memory buffer = new bytes(2 * length + 2);\r\n        buffer[0] = \"0\";\r\n        buffer[1] = \"x\";\r\n        for (uint256 i = 2 * length + 1; i > 1; --i) {\r\n            buffer[i] = _SYMBOLS[localValue & 0xf];\r\n            localValue >>= 4;\r\n        }\r\n        if (localValue != 0) {\r\n            revert StringsInsufficientHexLength(value, length);\r\n        }\r\n        return string(buffer);\r\n    }\r\n\r\n    /**\r\n     * @dev Converts an `address` with fixed length of 20 bytes to its not checksummed ASCII `string` hexadecimal representation.\r\n     */\r\n    function toHexString(address addr) internal pure returns (string memory) {\r\n        return toHexString(uint256(uint160(addr)), _ADDRESS_LENGTH);\r\n    }\r\n\r\n    /**\r\n     * @dev Returns true if the two strings are equal.\r\n     */\r\n    function equal(string memory a, string memory b) internal pure returns (bool) {\r\n        return bytes(a).length == bytes(b).length && keccak256(bytes(a)) == keccak256(bytes(b));\r\n    }\r\n}\r\n\r\n/**\r\n * @dev Implementation of https://eips.ethereum.org/EIPS/eip-721[ERC721] Non-Fungible Token Standard, including\r\n * the Metadata extension, but not including the Enumerable extension, which is available separately as\r\n * {ERC721Enumerable}.\r\n */\r\nabstract contract ERC721 is Context, ERC165, IERC721, IERC721Metadata, IERC721Errors {\r\n    using Strings for uint256;\r\n    \r\n\r\n    // Token name\r\n    string private _name;\r\n\r\n    // Token symbol\r\n    string private _symbol;\r\n\r\n    // Mapping from token ID to owner address\r\n    mapping(uint256 => address) private _owners;\r\n\r\n    // Mapping owner address to token count\r\n    mapping(address => uint256) private _balances;\r\n\r\n    // Mapping from token ID to approved address\r\n    mapping(uint256 => address) private _tokenApprovals;\r\n\r\n    // Mapping from owner to operator approvals\r\n    mapping(address => mapping(address => bool)) private _operatorApprovals;\r\n\r\n    /**\r\n     * @dev Initializes the contract by setting a `name` and a `symbol` to the token collection.\r\n     */\r\n    constructor(string memory name_, string memory symbol_) {\r\n        _name = name_;\r\n        _symbol = symbol_;\r\n    }\r\n\r\n    /**\r\n     * @dev See {IERC165-supportsInterface}.\r\n     */\r\n    function supportsInterface(bytes4 interfaceId) public view virtual override(ERC165, IERC165) returns (bool) {\r\n        return\r\n            interfaceId == type(IERC721).interfaceId ||\r\n            interfaceId == type(IERC721Metadata).interfaceId ||\r\n            super.supportsInterface(interfaceId);\r\n    }\r\n\r\n    /**\r\n     * @dev See {IERC721-balanceOf}.\r\n     */\r\n    function balanceOf(address owner) public view virtual returns (uint256) {\r\n        if (owner == address(0)) {\r\n            revert ERC721InvalidOwner(address(0));\r\n        }\r\n        return _balances[owner];\r\n    }\r\n\r\n    /**\r\n     * @dev See {IERC721-ownerOf}.\r\n     */\r\n    function ownerOf(uint256 tokenId) public view virtual returns (address) {\r\n        address owner = _ownerOf(tokenId);\r\n        if (owner == address(0)) {\r\n            revert ERC721NonexistentToken(tokenId);\r\n        }\r\n        return owner;\r\n    }\r\n\r\n    /**\r\n     * @dev See {IERC721Metadata-name}.\r\n     */\r\n    function name() public view virtual returns (string memory) {\r\n        return _name;\r\n    }\r\n\r\n    /**\r\n     * @dev See {IERC721Metadata-symbol}.\r\n     */\r\n    function symbol() public view virtual returns (string memory) {\r\n        return _symbol;\r\n    }\r\n\r\n    /**\r\n     * @dev See {IERC721Metadata-tokenURI}.\r\n     */\r\n    function tokenURI(uint256 tokenId) public view virtual returns (string memory) {\r\n        _requireMinted(tokenId);\r\n\r\n        string memory baseURI = _baseURI();\r\n        return bytes(baseURI).length > 0 ? string(abi.encodePacked(baseURI, tokenId.toString())) : \"\";\r\n    }\r\n\r\n    /**\r\n     * @dev Base URI for computing {tokenURI}. If set, the resulting URI for each\r\n     * token will be the concatenation of the `baseURI` and the `tokenId`. Empty\r\n     * by default, can be overridden in child contracts.\r\n     */\r\n    function _baseURI() internal view virtual returns (string memory) {\r\n        return \"\";\r\n    }\r\n\r\n    /**\r\n     * @dev See {IERC721-approve}.\r\n     */\r\n    function approve(address to, uint256 tokenId) public virtual {\r\n        address owner = ownerOf(tokenId);\r\n        if (to == owner) {\r\n            revert ERC721InvalidOperator(owner);\r\n        }\r\n\r\n        if (_msgSender() != owner && !isApprovedForAll(owner, _msgSender())) {\r\n            revert ERC721InvalidApprover(_msgSender());\r\n        }\r\n\r\n        _approve(to, tokenId);\r\n    }\r\n\r\n    /**\r\n     * @dev See {IERC721-getApproved}.\r\n     */\r\n    function getApproved(uint256 tokenId) public view virtual returns (address) {\r\n        _requireMinted(tokenId);\r\n\r\n        return _tokenApprovals[tokenId];\r\n    }\r\n\r\n    /**\r\n     * @dev See {IERC721-setApprovalForAll}.\r\n     */\r\n    function setApprovalForAll(address operator, bool approved) public virtual {\r\n        _setApprovalForAll(_msgSender(), operator, approved);\r\n    }\r\n\r\n    /**\r\n     * @dev See {IERC721-isApprovedForAll}.\r\n     */\r\n    function isApprovedForAll(address owner, address operator) public view virtual returns (bool) {\r\n        return _operatorApprovals[owner][operator];\r\n    }\r\n\r\n    /**\r\n     * @dev See {IERC721-transferFrom}.\r\n     */\r\n    function transferFrom(address from, address to, uint256 tokenId) public virtual {\r\n        if (!_isApprovedOrOwner(_msgSender(), tokenId)) {\r\n            revert ERC721InsufficientApproval(_msgSender(), tokenId);\r\n        }\r\n\r\n        _transfer(from, to, tokenId);\r\n    }\r\n\r\n    /**\r\n     * @dev See {IERC721-safeTransferFrom}.\r\n     */\r\n    function safeTransferFrom(address from, address to, uint256 tokenId) public virtual {\r\n        safeTransferFrom(from, to, tokenId, \"\");\r\n    }\r\n\r\n    /**\r\n     * @dev See {IERC721-safeTransferFrom}.\r\n     */\r\n    function safeTransferFrom(address from, address to, uint256 tokenId, bytes memory data) public virtual {\r\n        if (!_isApprovedOrOwner(_msgSender(), tokenId)) {\r\n            revert ERC721InsufficientApproval(_msgSender(), tokenId);\r\n        }\r\n        _safeTransfer(from, to, tokenId, data);\r\n    }\r\n\r\n    /**\r\n     * @dev Safely transfers `tokenId` token from `from` to `to`, checking first that contract recipients\r\n     * are aware of the ERC721 protocol to prevent tokens from being forever locked.\r\n     *\r\n     * `data` is additional data, it has no specified format and it is sent in call to `to`.\r\n     *\r\n     * This internal function is equivalent to {safeTransferFrom}, and can be used to e.g.\r\n     * implement alternative mechanisms to perform token transfer, such as signature-based.\r\n     *\r\n     * Requirements:\r\n     *\r\n     * - `from` cannot be the zero address.\r\n     * - `to` cannot be the zero address.\r\n     * - `tokenId` token must exist and be owned by `from`.\r\n     * - If `to` refers to a smart contract, it must implement {IERC721Receiver-onERC721Received}, which is called upon a safe transfer.\r\n     *\r\n     * Emits a {Transfer} event.\r\n     */\r\n    function _safeTransfer(address from, address to, uint256 tokenId, bytes memory data) internal virtual {\r\n        _transfer(from, to, tokenId);\r\n        if (!_checkOnERC721Received(from, to, tokenId, data)) {\r\n            revert ERC721InvalidReceiver(to);\r\n        }\r\n    }\r\n\r\n    /**\r\n     * @dev Returns the owner of the `tokenId`. Does NOT revert if token doesn't exist\r\n     */\r\n    function _ownerOf(uint256 tokenId) internal view virtual returns (address) {\r\n        return _owners[tokenId];\r\n    }\r\n\r\n    /**\r\n     * @dev Returns whether `tokenId` exists.\r\n     *\r\n     * Tokens can be managed by their owner or approved accounts via {approve} or {setApprovalForAll}.\r\n     *\r\n     * Tokens start existing when they are minted (`_mint`),\r\n     * and stop existing when they are burned (`_burn`).\r\n     */\r\n    function _exists(uint256 tokenId) internal view virtual returns (bool) {\r\n        return _ownerOf(tokenId) != address(0);\r\n    }\r\n\r\n    /**\r\n     * @dev Returns whether `spender` is allowed to manage `tokenId`.\r\n     *\r\n     * Requirements:\r\n     *\r\n     * - `tokenId` must exist.\r\n     */\r\n    function _isApprovedOrOwner(address spender, uint256 tokenId) internal view virtual returns (bool) {\r\n        address owner = ownerOf(tokenId);\r\n        return (spender == owner || isApprovedForAll(owner, spender) || getApproved(tokenId) == spender);\r\n    }\r\n\r\n    /**\r\n     * @dev Safely mints `tokenId` and transfers it to `to`.\r\n     *\r\n     * Requirements:\r\n     *\r\n     * - `tokenId` must not exist.\r\n     * - If `to` refers to a smart contract, it must implement {IERC721Receiver-onERC721Received}, which is called upon a safe transfer.\r\n     *\r\n     * Emits a {Transfer} event.\r\n     */\r\n    function _safeMint(address to, uint256 tokenId) internal virtual {\r\n        _safeMint(to, tokenId, \"\");\r\n    }\r\n\r\n    /**\r\n     * @dev Same as {xref-ERC721-_safeMint-address-uint256-}[`_safeMint`], with an additional `data` parameter which is\r\n     * forwarded in {IERC721Receiver-onERC721Received} to contract recipients.\r\n     */\r\n    function _safeMint(address to, uint256 tokenId, bytes memory data) internal virtual {\r\n        _mint(to, tokenId);\r\n        if (!_checkOnERC721Received(address(0), to, tokenId, data)) {\r\n            revert ERC721InvalidReceiver(to);\r\n        }\r\n    }\r\n\r\n    /**\r\n     * @dev Mints `tokenId` and transfers it to `to`.\r\n     *\r\n     * WARNING: Usage of this method is discouraged, use {_safeMint} whenever possible\r\n     *\r\n     * Requirements:\r\n     *\r\n     * - `tokenId` must not exist.\r\n     * - `to` cannot be the zero address.\r\n     *\r\n     * Emits a {Transfer} event.\r\n     */\r\n    function _mint(address to, uint256 tokenId) internal virtual {\r\n        if (to == address(0)) {\r\n            revert ERC721InvalidReceiver(address(0));\r\n        }\r\n        if (_exists(tokenId)) {\r\n            revert ERC721InvalidSender(address(0));\r\n        }\r\n\r\n        _beforeTokenTransfer(address(0), to, tokenId, 1);\r\n\r\n        // Check that tokenId was not minted by `_beforeTokenTransfer` hook\r\n        if (_exists(tokenId)) {\r\n            revert ERC721InvalidSender(address(0));\r\n        }\r\n\r\n        unchecked {\r\n            // Will not overflow unless all 2**256 token ids are minted to the same owner.\r\n            // Given that tokens are minted one by one, it is impossible in practice that\r\n            // this ever happens. Might change if we allow batch minting.\r\n            // The ERC fails to describe this case.\r\n            _balances[to] += 1;\r\n        }\r\n\r\n        _owners[tokenId] = to;\r\n\r\n        emit Transfer(address(0), to, tokenId);\r\n\r\n        _afterTokenTransfer(address(0), to, tokenId, 1);\r\n    }\r\n\r\n    /**\r\n     * @dev Destroys `tokenId`.\r\n     * The approval is cleared when the token is burned.\r\n     * This is an internal function that does not check if the sender is authorized to operate on the token.\r\n     *\r\n     * Requirements:\r\n     *\r\n     * - `tokenId` must exist.\r\n     *\r\n     * Emits a {Transfer} event.\r\n     */\r\n    function _burn(uint256 tokenId) internal virtual {\r\n        address owner = ownerOf(tokenId);\r\n\r\n        _beforeTokenTransfer(owner, address(0), tokenId, 1);\r\n\r\n        // Update ownership in case tokenId was transferred by `_beforeTokenTransfer` hook\r\n        owner = ownerOf(tokenId);\r\n\r\n        // Clear approvals\r\n        delete _tokenApprovals[tokenId];\r\n\r\n        // Decrease balance with checked arithmetic, because an `ownerOf` override may\r\n        // invalidate the assumption that `_balances[from] >= 1`.\r\n        _balances[owner] -= 1;\r\n\r\n        delete _owners[tokenId];\r\n\r\n        emit Transfer(owner, address(0), tokenId);\r\n\r\n        _afterTokenTransfer(owner, address(0), tokenId, 1);\r\n    }\r\n\r\n    /**\r\n     * @dev Transfers `tokenId` from `from` to `to`.\r\n     *  As opposed to {transferFrom}, this imposes no restrictions on msg.sender.\r\n     *\r\n     * Requirements:\r\n     *\r\n     * - `to` cannot be the zero address.\r\n     * - `tokenId` token must be owned by `from`.\r\n     *\r\n     * Emits a {Transfer} event.\r\n     */\r\n    function _transfer(address from, address to, uint256 tokenId) internal virtual {\r\n        address owner = ownerOf(tokenId);\r\n        if (owner != from) {\r\n            revert ERC721IncorrectOwner(from, tokenId, owner);\r\n        }\r\n        if (to == address(0)) {\r\n            revert ERC721InvalidReceiver(address(0));\r\n        }\r\n\r\n        _beforeTokenTransfer(from, to, tokenId, 1);\r\n\r\n        // Check that tokenId was not transferred by `_beforeTokenTransfer` hook\r\n        owner = ownerOf(tokenId);\r\n        if (owner != from) {\r\n            revert ERC721IncorrectOwner(from, tokenId, owner);\r\n        }\r\n\r\n        // Clear approvals from the previous owner\r\n        delete _tokenApprovals[tokenId];\r\n\r\n        // Decrease balance with checked arithmetic, because an `ownerOf` override may\r\n        // invalidate the assumption that `_balances[from] >= 1`.\r\n        _balances[from] -= 1;\r\n\r\n        unchecked {\r\n            // `_balances[to]` could overflow in the conditions described in `_mint`. That would require\r\n            // all 2**256 token ids to be minted, which in practice is impossible.\r\n            _balances[to] += 1;\r\n        }\r\n\r\n        _owners[tokenId] = to;\r\n\r\n        emit Transfer(from, to, tokenId);\r\n\r\n        _afterTokenTransfer(from, to, tokenId, 1);\r\n    }\r\n\r\n    /**\r\n     * @dev Approve `to` to operate on `tokenId`\r\n     *\r\n     * Emits an {Approval} event.\r\n     */\r\n    function _approve(address to, uint256 tokenId) internal virtual {\r\n        _tokenApprovals[tokenId] = to;\r\n        emit Approval(ownerOf(tokenId), to, tokenId);\r\n    }\r\n\r\n    /**\r\n     * @dev Approve `operator` to operate on all of `owner` tokens\r\n     *\r\n     * Emits an {ApprovalForAll} event.\r\n     */\r\n    function _setApprovalForAll(address owner, address operator, bool approved) internal virtual {\r\n        if (owner == operator) {\r\n            revert ERC721InvalidOperator(owner);\r\n        }\r\n        _operatorApprovals[owner][operator] = approved;\r\n        emit ApprovalForAll(owner, operator, approved);\r\n    }\r\n\r\n    /**\r\n     * @dev Reverts if the `tokenId` has not been minted yet.\r\n     */\r\n    function _requireMinted(uint256 tokenId) internal view virtual {\r\n        if (!_exists(tokenId)) {\r\n            revert ERC721NonexistentToken(tokenId);\r\n        }\r\n    }\r\n\r\n    /**\r\n     * @dev Internal function to invoke {IERC721Receiver-onERC721Received} on a target address.\r\n     * The call is not executed if the target address is not a contract.\r\n     *\r\n     * @param from address representing the previous owner of the given token ID\r\n     * @param to target address that will receive the tokens\r\n     * @param tokenId uint256 ID of the token to be transferred\r\n     * @param data bytes optional data to send along with the call\r\n     * @return bool whether the call correctly returned the expected magic value\r\n     */\r\n    function _checkOnERC721Received(\r\n        address from,\r\n        address to,\r\n        uint256 tokenId,\r\n        bytes memory data\r\n    ) private returns (bool) {\r\n        if (to.code.length > 0) {\r\n            try IERC721Receiver(to).onERC721Received(_msgSender(), from, tokenId, data) returns (bytes4 retval) {\r\n                return retval == IERC721Receiver.onERC721Received.selector;\r\n            } catch (bytes memory reason) {\r\n                if (reason.length == 0) {\r\n                    revert ERC721InvalidReceiver(to);\r\n                } else {\r\n                    /// @solidity memory-safe-assembly\r\n                    assembly {\r\n                        revert(add(32, reason), mload(reason))\r\n                    }\r\n                }\r\n            }\r\n        } else {\r\n            return true;\r\n        }\r\n    }\r\n\r\n    /**\r\n     * @dev Hook that is called before any token transfer. This includes minting and burning. If {ERC721Consecutive} is\r\n     * used, the hook may be called as part of a consecutive (batch) mint, as indicated by `batchSize` greater than 1.\r\n     *\r\n     * Calling conditions:\r\n     *\r\n     * - When `from` and `to` are both non-zero, ``from``'s tokens will be transferred to `to`.\r\n     * - When `from` is zero, the tokens will be minted for `to`.\r\n     * - When `to` is zero, ``from``'s tokens will be burned.\r\n     * - `from` and `to` are never both zero.\r\n     * - `batchSize` is non-zero.\r\n     *\r\n     * To learn more about hooks, head to xref:ROOT:extending-contracts.adoc#using-hooks[Using Hooks].\r\n     */\r\n    function _beforeTokenTransfer(address from, address to, uint256 firstTokenId, uint256 batchSize) internal virtual {}\r\n\r\n    /**\r\n     * @dev Hook that is called after any token transfer. This includes minting and burning. If {ERC721Consecutive} is\r\n     * used, the hook may be called as part of a consecutive (batch) mint, as indicated by `batchSize` greater than 1.\r\n     *\r\n     * Calling conditions:\r\n     *\r\n     * - When `from` and `to` are both non-zero, ``from``'s tokens were transferred to `to`.\r\n     * - When `from` is zero, the tokens were minted for `to`.\r\n     * - When `to` is zero, ``from``'s tokens were burned.\r\n     * - `from` and `to` are never both zero.\r\n     * - `batchSize` is non-zero.\r\n     *\r\n     * To learn more about hooks, head to xref:ROOT:extending-contracts.adoc#using-hooks[Using Hooks].\r\n     */\r\n    function _afterTokenTransfer(address from, address to, uint256 firstTokenId, uint256 batchSize) internal virtual {}\r\n\r\n    /**\r\n     * @dev Unsafe write access to the balances, used by extensions that \"mint\" tokens using an {ownerOf} override.\r\n     *\r\n     * WARNING: Anyone calling this MUST ensure that the balances remain consistent with the ownership. The invariant\r\n     * being that for any address `a` the value returned by `balanceOf(a)` must be equal to the number of tokens such\r\n     * that `ownerOf(tokenId)` is `a`.\r\n     */\r\n    // solhint-disable-next-line func-name-mixedcase\r\n    function __unsafe_increaseBalance(address account, uint256 amount) internal {\r\n        _balances[account] += amount;\r\n    }\r\n}\r\n\r\n/**\r\n * @title Counters\r\n * @author Matt Condon (@shrugs)\r\n * @dev Provides counters that can only be incremented or decremented by one. This can be used e.g. to track the number\r\n * of elements in a mapping, issuing ERC721 ids, or counting request ids.\r\n *\r\n * Include with `using Counters for Counters.Counter;`\r\n * Since it is not possible to overflow a 256 bit integer with increments of one, `increment` can skip the {SafeMath}\r\n * overflow check, thereby saving gas. This does assume however correct usage, in that the underlying `_value` is never\r\n * directly accessed.\r\n */\r\nlibrary Counters {\r\n\r\n    struct Counter {\r\n        // This variable should never be directly accessed by users of the library: interactions must be restricted to\r\n        // the library's function. As of Solidity v0.5.2, this cannot be enforced, though there is a proposal to add\r\n        // this feature: see https://github.com/ethereum/solidity/issues/4637\r\n        uint256 _value; // default: 0\r\n    }\r\n\r\n    function current(Counter storage counter) internal view returns (uint256) {\r\n        return counter._value;\r\n    }\r\n\r\n    function increment(Counter storage counter) internal {\r\n        // The {SafeMath} overflow check can be skipped here, see the comment at the top\r\n        counter._value += 1;\r\n    }\r\n\r\n    function decrement(Counter storage counter) internal {\r\n        counter._value = counter._value - 1;\r\n    }\r\n}\r\n\r\n/**\r\n * @dev Contract module that helps prevent reentrant calls to a function.\r\n *\r\n * Inheriting from `ReentrancyGuard` will make the {nonReentrant} modifier\r\n * available, which can be applied to functions to make sure there are no nested\r\n * (reentrant) calls to them.\r\n *\r\n * Note that because there is a single `nonReentrant` guard, functions marked as\r\n * `nonReentrant` may not call one another. This can be worked around by making\r\n * those functions `private`, and then adding `external` `nonReentrant` entry\r\n * points to them.\r\n *\r\n * TIP: If you would like to learn more about reentrancy and alternative ways\r\n * to protect against it, check out our blog post\r\n * https://blog.openzeppelin.com/reentrancy-after-istanbul/[Reentrancy After Istanbul].\r\n */\r\nabstract contract ReentrancyGuard {\r\n    // Booleans are more expensive than uint256 or any type that takes up a full\r\n    // word because each write operation emits an extra SLOAD to first read the\r\n    // slot's contents, replace the bits taken up by the boolean, and then write\r\n    // back. This is the compiler's defense against contract upgrades and\r\n    // pointer aliasing, and it cannot be disabled.\r\n\r\n    // The values being non-zero value makes deployment a bit more expensive,\r\n    // but in exchange the refund on every call to nonReentrant will be lower in\r\n    // amount. Since refunds are capped to a percentage of the total\r\n    // transaction's gas, it is best to keep them low in cases like this one, to\r\n    // increase the likelihood of the full refund coming into effect.\r\n    uint256 private constant NOT_ENTERED = 1;\r\n    uint256 private constant ENTERED = 2;\r\n\r\n    uint256 private _status;\r\n\r\n    /**\r\n     * @dev Unauthorized reentrant call.\r\n     */\r\n    error ReentrancyGuardReentrantCall();\r\n\r\n    constructor() {\r\n        _status = NOT_ENTERED;\r\n    }\r\n\r\n    /**\r\n     * @dev Prevents a contract from calling itself, directly or indirectly.\r\n     * Calling a `nonReentrant` function from another `nonReentrant`\r\n     * function is not supported. It is possible to prevent this from happening\r\n     * by making the `nonReentrant` function external, and making it call a\r\n     * `private` function that does the actual work.\r\n     */\r\n    modifier nonReentrant() {\r\n        _nonReentrantBefore();\r\n        _;\r\n        _nonReentrantAfter();\r\n    }\r\n\r\n    function _nonReentrantBefore() private {\r\n        // On the first call to nonReentrant, _status will be NOT_ENTERED\r\n        if (_status == ENTERED) {\r\n            revert ReentrancyGuardReentrantCall();\r\n        }\r\n\r\n        // Any calls to nonReentrant after this point will fail\r\n        _status = ENTERED;\r\n    }\r\n\r\n    function _nonReentrantAfter() private {\r\n        // By storing the original value once again, a refund is triggered (see\r\n        // https://eips.ethereum.org/EIPS/eip-2200)\r\n        _status = NOT_ENTERED;\r\n    }\r\n\r\n    /**\r\n     * @dev Returns true if the reentrancy guard is currently set to \"entered\", which indicates there is a\r\n     * `nonReentrant` function in the call stack.\r\n     */\r\n    function _reentrancyGuardEntered() internal view returns (bool) {\r\n        return _status == ENTERED;\r\n    }\r\n}\r\n\r\n/*\r\n * @notice SmartBet core smart contract. Handles fights, bets and farming\r\n */\r\ncontract StreamFightersBet is ERC721, ReentrancyGuard {\r\n    using Strings for uint256;\r\n    using Counters for Counters.Counter;\r\n\r\n    ////////////////////////////////////////\r\n    //                                    //\r\n    //         STATE VARIABLES            //\r\n    //                                    //\r\n    ////////////////////////////////////////\r\n    // contract owner adress\r\n    address private owner;\r\n\r\n    // incremented for fight id generation\r\n    Counters.Counter private fightIds;\r\n\r\n    // incremented id for NFT minting\r\n    Counters.Counter private tokenIds;\r\n\r\n    // flag to determine if contracts core functionalities can be performed\r\n    bool circuitBreaker = false;\r\n\r\n    enum FightResult {NOT_DETERMINED, BOXER_A_WON, BOXER_B_WON}\r\n    enum FightState {NOT_STARTED, STARTED, FINISHED}\r\n\r\n    uint8 private constant BOXER_A = 1;\r\n    uint8 private constant BOXER_B = 2;\r\n\r\n    uint256 poolCRT;\r\n    uint256 totalBettors;\r\n    mapping(address => bool) public hasBet;\r\n\r\n    struct Fight {\r\n        address creator;\r\n        string fightName;\r\n        string uriBoxerA;\r\n        string uriBoxerB;\r\n        uint256 totalPayoutBoxerA;\r\n        uint256 totalPayoutBoxerB;\r\n        uint256 totalCollected;\r\n        FightResult result;\r\n        FightState state;\r\n        uint256 startsAt;\r\n        bool exists;\r\n    }\r\n\r\n    // NFT issued to winner\r\n    struct SmartAsset {\r\n        address owner;\r\n        uint256 fightId;\r\n        FightResult fightResult;\r\n        uint256 initialValue;\r\n        uint8 accruedInterest;\r\n    }\r\n\r\n    // holds all NFTs issued to winners\r\n    mapping(uint256 => SmartAsset) smartAssets;\r\n\r\n    // holds all created fights (key: idCounter)\r\n    mapping(uint256 => Fight) fights;\r\n    \r\n    // holds all apiFightId -> onChainFightId to prevent duplicate entries\r\n    mapping(uint256 => uint256) apiFights;\r\n\r\n    // holds all bets on a fight\r\n    // mapping(fightId => mapping(gameResult => smartAssetId[])) fightBets;\r\n    mapping(uint256 => mapping(FightResult => uint256[])) fightBets;\r\n\r\n    mapping(bytes32 => uint256) fightResultRequestIds;\r\n    \r\n    mapping (uint256 => string) private _tokenURIs;\r\n\r\n    address public constant CRT = 0x281027C6a46142D6FC57f12665147221CE69Af33; //CRT swap to UVT\r\n    IERC20 crtToken;\r\n\r\n    ////////////////////////////////////////\r\n    //                                    //\r\n    //           CONSTRUCTOR              //\r\n    //                                    //      \r\n    ////////////////////////////////////////\r\n\r\n    constructor() ERC721(\"StreamFightersBet\", \"SFB\") {\r\n        owner = msg.sender;\r\n        crtToken = IERC20(CRT);\r\n    }\r\n\r\n    ////////////////////////////////////////\r\n    //                                    //\r\n    //              EVENTS                //\r\n    //                                    //      \r\n    ////////////////////////////////////////\r\n\r\n    event FightCreatedEvent(address creator, uint256 indexed fightId, uint256 indexed apiFightId, uint256 startAt, uint256 indexed createdOn);\r\n    event BetPlacedEvent(address indexed bettor, uint256 indexed fightId, uint256 amount, uint256 indexed betPlacedAt);\r\n    event SmartAssetAwardedEvent(address indexed awardee, uint256 indexed fightId, uint256 smartAssetId, uint256 awardedAt);\r\n    event FightClosedEvent(address indexed by, uint256 indexed fightId, uint256 closedAt);\r\n    event FightResultSetEvent(uint256 indexed fightId, FightResult result, uint256 setAt);\r\n    event AssetLiquidatedEvent(address indexed by, uint256 indexed fightId, uint256 amount, uint256 liquidatedAt);\r\n    event TokenURISet(uint256 tokenId, string uri);\r\n\r\n    ////////////////////////////////////////\r\n    //                                    //\r\n    //              MODIFIERS             //\r\n    //                                    //      \r\n    ////////////////////////////////////////\r\n\r\n    /*\r\n    *  @notice  Restrict caller only owner\r\n    */\r\n    modifier onlyOwner() {\r\n        require(msg.sender == owner, \"caller is not owner\");\r\n        _;\r\n    }\r\n\r\n    /*\r\n    *  @notice  Ensure fight does not previously exist\r\n    */\r\n    modifier isNewFight(uint256 _fightId) {\r\n        require(!fights[_fightId].exists, \"on chain fight exists\");\r\n        _;\r\n    }\r\n\r\n    /*\r\n    *  @notice  Ensure api fight does not previously exist\r\n    */\r\n    modifier isNewAPIFight(uint256 _api_fightId) {\r\n        require(apiFights[_api_fightId] == 0, \"api fight ID exists\");\r\n        _;\r\n    }\r\n\r\n    /*\r\n    *  @notice  Ensure fight exists\r\n    */\r\n    modifier fightExists(uint256 _fightId){\r\n        require(fights[_fightId].exists, \"on chain fight does not exist\");\r\n        _;\r\n    }\r\n\r\n    /*\r\n    *  @notice  Ensure fight has not started\r\n    */\r\n    modifier fightNotStarted(uint256 _fightId){\r\n        require(fights[_fightId].state == FightState.NOT_STARTED, \"fight started\");\r\n        _;\r\n    }\r\n\r\n    /*\r\n    *  @notice  Ensure fight has started\r\n    */\r\n    modifier fightStarted(uint256 _fightId){\r\n        require(fights[_fightId].state == FightState.STARTED, \"fight not started\");\r\n        _;\r\n    }\r\n\r\n    /*\r\n    *  @notice  Ensure fight has ended\r\n    */\r\n    modifier fightFinished(uint256 _fightId){\r\n        require(fights[_fightId].state == FightState.FINISHED, \"fight not finished\");\r\n        _;\r\n    }\r\n\r\n    /*\r\n    *  @notice Checks if core functionalities can be performed\r\n    *  @dev Checks if the circuitBreaker state variable is false\r\n    */\r\n    modifier isCircuitBreakOff() {\r\n        require(!circuitBreaker, \"Circuit breaker is on\");\r\n        _;\r\n    }\r\n\r\n    /*\r\n    *  @notice Checks if the NFT is valid\r\n    *  @dev Validates NFT\r\n    */\r\n    modifier validateToken(uint256 _tokenId) {\r\n        require(_exists(_tokenId), \"Invalid token\");\r\n        _;\r\n    }\r\n    \r\n    /*\r\n    *  @notice  Ensure token belongs to the caller\r\n    */\r\n    modifier isTokenOwner(uint256 _tokenId) {\r\n        require(ownerOf(_tokenId) == msg.sender , \"caller is not token owner\");\r\n        _;\r\n    }\r\n\r\n    /*\r\n    *  @notice  Ensures bets are allowed on the fight\r\n    *  @dev     The totalCollected on the fight must be greater than the total payout on the Boxer the bettor wants to bet on. The incoming bet is inclusive in the calculation\r\n    */\r\n    modifier isBetAllowed(uint256 _fightId) {\r\n        require(true, \"Bet is not allowed\");\r\n        _;\r\n    }\r\n    \r\n    modifier validateFightResult(uint8 _fightResult) {\r\n        require(FightResult(_fightResult) == FightResult.BOXER_A_WON || FightResult(_fightResult) == FightResult.BOXER_B_WON, \"Invalid fight result\");\r\n        _;\r\n    }\r\n\r\n    ////////////////////////////////////////\r\n    //                                    //\r\n    //              FUNCTIONS             //\r\n    //                                    //      \r\n    ////////////////////////////////////////\r\n\r\n    /*\r\n    *  @notice  Creates a new fight\r\n    *  @dev     Initializes a new fight with details and metadata URIs for each boxer\r\n    *  @param   _apiFightId The API identifier for the fight\r\n    *  @param   fightName The name of the fight\r\n    *  @param   _uriBoxerA Metadata URI for Boxer A\r\n    *  @param   _uriBoxerB Metadata URI for Boxer B\r\n    *  @param   _startAt The start time of the fight\r\n    *  @return  The ID of the created fight\r\n    */\r\n    function createFight(uint256 _apiFightId, string calldata fightName, string calldata _uriBoxerA, string calldata _uriBoxerB, uint256 _startAt)\r\n        public \r\n        isNewAPIFight(_apiFightId)\r\n        onlyOwner\r\n        returns(uint)\r\n    {\r\n        fightIds.increment();\r\n        uint256 fightId = fightIds.current();\r\n        fights[fightId] = Fight(msg.sender, fightName, _uriBoxerA, _uriBoxerB, 0, 0, 0, FightResult.NOT_DETERMINED, FightState.NOT_STARTED, _startAt, true); \r\n        apiFights[_apiFightId] = fightId;\r\n        uint256 createdOnDay = block.timestamp - (block.timestamp % 86400);\r\n        emit FightCreatedEvent(msg.sender, fightId, _apiFightId, _startAt, createdOnDay);\r\n\r\n        return fightId;\r\n    }\r\n\r\n    /*\r\n    *  @notice  New bet creation and mint NFT (for CRT Token bets)\r\n    *  @dev     Places a bet using CRT Tokens and mints an NFT to the bettor\r\n    *  @param   _fightId The ID of the fight on which the bet is placed\r\n    *  @param   _resultBetOn The expected result of the fight (Boxer A or B)\r\n    *  @param   amountBet The amount of bet in CRT tokens\r\n    *  @return  The ID of the minted NFT token\r\n    */\r\n    function placeBetCRT(uint256 _fightId, uint8 _resultBetOn, uint256 amountBet)\r\n        public \r\n        isCircuitBreakOff\r\n        fightExists(_fightId) \r\n        fightNotStarted(_fightId) \r\n        isBetAllowed(_fightId)\r\n        validateFightResult(_resultBetOn)\r\n        nonReentrant\r\n        returns(uint256)\r\n    {\r\n        require(amountBet != 0, \"Invalid amount bet\");\r\n        require(fights[_fightId].startsAt < block.timestamp, \"Time is up\");\r\n\r\n        address bettor = msg.sender;\r\n\r\n        if (!hasBet[msg.sender]) {\r\n            hasBet[msg.sender] = true;\r\n            totalBettors++;\r\n        }\r\n\r\n        FightResult fightResultBetOn = FightResult(_resultBetOn);\r\n        \r\n        //update Boxer's total payout\r\n        if (fightResultBetOn == FightResult.BOXER_A_WON) {\r\n            fights[_fightId].totalPayoutBoxerA = fights[_fightId].totalPayoutBoxerA + amountBet;\r\n        } else if(fightResultBetOn == FightResult.BOXER_B_WON) {\r\n            fights[_fightId].totalPayoutBoxerB = fights[_fightId].totalPayoutBoxerB + amountBet;\r\n        }\r\n\r\n        //increase totalCollected on the fight\r\n        fights[_fightId].totalCollected = fights[_fightId].totalCollected + amountBet;\r\n        poolCRT += amountBet;\r\n\r\n        require(crtToken.transferFrom(msg.sender, address(this), amountBet), \"Transfer CRT failed\");\r\n        uint256 smartAssetId = awardSmartAsset(bettor, amountBet, _fightId, fightResultBetOn);\r\n        \r\n        //Save bettor's bet\r\n        fightBets[_fightId][fightResultBetOn].push(smartAssetId);\r\n        \r\n        emit BetPlacedEvent(bettor, _fightId, amountBet, block.timestamp);\r\n\r\n        return smartAssetId;\r\n    }\r\n\r\n    \r\n    /*\r\n    *  @notice  Awards a new Smart Asset (NFT) to the bettor.\r\n    *  @dev     Increments the token ID counter and mints a new NFT with a URI based on the chosen fighter.\r\n    *  @param   bettor The address of the individual placing the bet.\r\n    *  @param   betAmount The amount bet by the individual.\r\n    *  @param   _fightId The ID of the fight on which the bet is placed.\r\n    *  @param   _fightResultBetOn The outcome the bet is placed on (e.g., Boxer A won, Boxer B won).\r\n    *  @return  Returns the ID of the newly minted NFT.\r\n    */\r\n    function awardSmartAsset(address bettor, uint256 betAmount, uint256 _fightId, FightResult _fightResultBetOn) \r\n        internal returns (uint256) \r\n    {\r\n        tokenIds.increment();\r\n\r\n        uint256 smartAssetId = tokenIds.current();\r\n\r\n\r\n        // Decide which URI to use based on the fighter chosen for the bet\r\n        string memory boxerUri;\r\n        if (_fightResultBetOn == FightResult.BOXER_A_WON) {\r\n            boxerUri = fights[_fightId].uriBoxerA;\r\n        } else if (_fightResultBetOn == FightResult.BOXER_B_WON) {\r\n            boxerUri = fights[_fightId].uriBoxerB;\r\n        }\r\n\r\n        _mint(bettor, smartAssetId);\r\n        _setTokenURI(smartAssetId, boxerUri);\r\n        \r\n        smartAssets[smartAssetId] = SmartAsset(msg.sender, _fightId, _fightResultBetOn, betAmount, 0);\r\n\r\n        emit SmartAssetAwardedEvent(bettor, _fightId, smartAssetId, block.timestamp);\r\n\r\n        return smartAssetId;\r\n    }\r\n    \r\n    /*\r\n    *  @notice  Changes the fight state to started\r\n    *  @dev     Marks a fight as started; can only be done by the contract owner\r\n    *  @param   _fightId The ID of the fight to start\r\n    */\r\n    function startFight(uint256 _fightId) \r\n        public\r\n        onlyOwner\r\n        fightExists(_fightId) \r\n        fightNotStarted(_fightId)\r\n    {\r\n        fights[_fightId].state = FightState.STARTED;\r\n    }\r\n\r\n\r\n    /*\r\n    *  @notice  Closes the fight and sets the result\r\n    *  @dev     Marks a fight as finished and sets the winning boxer. Invalidates losing bets.\r\n    *  @param   _fightId The ID of the fight to close\r\n    *  @param   _fightResult The result of the fight (winning boxer)\r\n    *  @return  success The status of the operation (true/false)\r\n    */\r\n    function closeFight(uint256 _fightId, uint8 _fightResult)\r\n        public \r\n        onlyOwner\r\n        fightExists(_fightId) \r\n        fightStarted(_fightId)\r\n        validateFightResult(_fightResult)\r\n        nonReentrant\r\n    {\r\n        fights[_fightId].state = FightState.FINISHED;\r\n        \r\n        FightResult fightResult = FightResult(_fightResult);\r\n        setFightResult(_fightId, fightResult);\r\n        \r\n        if (fightResult == FightResult.BOXER_A_WON) {\r\n            invalidateAssets(fightBets[_fightId][FightResult.BOXER_B_WON]);\r\n        } else if (fightResult == FightResult.BOXER_B_WON) {\r\n            invalidateAssets(fightBets[_fightId][FightResult.BOXER_A_WON]);\r\n        } else {\r\n            invalidateAssets(fightBets[_fightId][FightResult.BOXER_A_WON]);\r\n            invalidateAssets(fightBets[_fightId][FightResult.BOXER_B_WON]);\r\n        }\r\n        \r\n        \r\n        emit FightClosedEvent(msg.sender, _fightId, block.timestamp);\r\n    }\r\n    \r\n    /*\r\n    *  @notice  Sets the result of a fight\r\n    *  @dev     Updates the fight with the final result (Boxer A won, Boxer B won)\r\n    *  @param   _fightId The ID of the fight\r\n    *  @param   _fightResult The final result of the fight\r\n    */\r\n    function setFightResult(uint256 _fightId, FightResult _fightResult) internal {\r\n        fights[_fightId].result = _fightResult;\r\n        emit FightResultSetEvent(_fightId, fights[_fightId].result, block.timestamp);\r\n    }\r\n    \r\n    /*\r\n    *  @notice  Invalidates a list of smart assets (NFTs)\r\n    *  @dev     Burns the NFT tokens in the provided list\r\n    *  @param   assets An array containing the IDs of the NFT tokens to invalidate\r\n    */\r\n    function invalidateAssets(uint256[] memory assets) internal {\r\n        for (uint i = 0; i < assets.length; i++) {\r\n            invalidateAsset(assets[i]);\r\n        }\r\n    }\r\n\r\n    /*\r\n    *  @notice  Invalidates a single smart asset (NFT)\r\n    *  @dev     Burns the NFT token with the given ID\r\n    *  @param   _smartAssetId The ID of the NFT to invalidate\r\n    */\r\n    function invalidateAsset(uint256 _smartAssetId) internal {\r\n        _burn(_smartAssetId);\r\n    }\r\n\r\n    /*\r\n    *  @notice  Calculates the payout for a bet\r\n    *  @dev     Calculates the amount to be paid out to the bettor based on the parimutuel betting system\r\n    *  @param   _fightId The ID of the fight\r\n    *  @param   initialValue The initial bet amount\r\n    *  @param   fightResult The result of the fight\r\n    *  @return  The amount to be paid out to the bettor\r\n    */\r\n    function calculatePayout(uint256 _fightId, uint256 initialValue, FightResult fightResult) internal view returns (uint256) {\r\n        uint256 winningTotal;\r\n        if (fightResult == FightResult.BOXER_A_WON) {\r\n            winningTotal = fights[_fightId].totalPayoutBoxerA;\r\n        } else if (fightResult == FightResult.BOXER_B_WON) {\r\n            winningTotal = fights[_fightId].totalPayoutBoxerB;\r\n        }\r\n\r\n        // Calculating payout based on the parimutuel betting system\r\n        uint256 payout = (initialValue * fights[_fightId].totalCollected) / winningTotal;\r\n        return payout;\r\n    }\r\n\r\n    /*\r\n    *  @notice  Liquidate smart asset's value\r\n    *  @dev     validated   NFT is burned and caller gets value funds in account\r\n    *  @param   _smartAssetId smart asset id\r\n    *  @return  success status\r\n    */\r\n    function liquidateAssetCRT(uint256 _smartAssetId)\r\n        public \r\n        isCircuitBreakOff\r\n        validateToken(_smartAssetId)\r\n        isTokenOwner(_smartAssetId)\r\n        nonReentrant \r\n        returns(bool)\r\n    {\r\n        SmartAsset memory smartAsset = smartAssets[_smartAssetId];\r\n        \r\n        require(fights[smartAsset.fightId].state == FightState.FINISHED, \"Cannot liquidate asset until fight is finished\");\r\n        \r\n        uint256 payoutAmount = calculatePayout(smartAsset.fightId, smartAsset.initialValue, smartAsset.fightResult);\r\n        require (crtToken.balanceOf(address(this)) >= payoutAmount, \"Contract has insufficient CRT funds\");\r\n        \r\n        invalidateAsset(_smartAssetId);\r\n        crtToken.transfer(msg.sender, payoutAmount);\r\n\r\n        emit AssetLiquidatedEvent(msg.sender, smartAsset.fightId, payoutAmount, block.timestamp);\r\n        return true;\r\n    }\r\n\r\n    /*\r\n    *  @notice  Sets the URI for a token\r\n    *  @dev     Sets the metadata URI for a given NFT token\r\n    *  @param   tokenId The ID of the token\r\n    *  @param   _tokenURI The URI to set for the token\r\n    */\r\n    function _setTokenURI(uint256 tokenId, string memory _tokenURI) internal virtual {\r\n        require(_exists(tokenId), \"ERC721Metadata: URI set of nonexistent token\");\r\n        _tokenURIs[tokenId] = _tokenURI;\r\n        emit TokenURISet(tokenId, _tokenURI);\r\n    }\r\n\r\n    /*\r\n    *  @notice  Fetches the URI for a token\r\n    *  @dev     Retrieves the metadata URI of a given NFT token\r\n    *  @param   tokenId The ID of the token\r\n    *  @return  The metadata URI of the token\r\n    */\r\n    function tokenURI(uint256 tokenId) public view override returns (string memory) {\r\n        require(_exists(tokenId), \"ERC721Metadata: URI query for nonexistent token\");\r\n        return _tokenURIs[tokenId];\r\n    }\r\n\r\n    /*\r\n    *  @notice  Contract Circuit Breaker\r\n    *  @dev     Admin can [de]activate core functons in contract\r\n    *  @param   \r\n    *  @return  success success status\r\n    */\r\n    function toggleCircuitBreaker()\r\n        public \r\n        onlyOwner\r\n    {\r\n        circuitBreaker = !circuitBreaker;\r\n    }\r\n\r\n    /*\r\n    *  @notice  Fetch fight details\r\n    *  @dev         \r\n    *  @oaram   _fightId\r\n    *  @return fight fight details\r\n    */\r\n    function getFight(uint256 _fightId)\r\n        public \r\n        view\r\n        fightExists(_fightId)\r\n        returns(Fight memory fight_)\r\n    {\r\n        return fights[_fightId];\r\n    }\r\n\r\n    /*\r\n    *  @notice  Fetch single SmartAsset\r\n    *  @dev          \r\n    *  @param   _smartAssetId\r\n    *  @return  asset details\r\n    */\r\n    function getSmartAsset(uint256 _smartAssetId)\r\n        public \r\n        view\r\n        validateToken(_smartAssetId)\r\n        returns(SmartAsset memory asset)\r\n    {\r\n        return smartAssets[_smartAssetId];\r\n    }\r\n\r\n    function getTotalBettors() public view returns (uint256) {\r\n        return totalBettors;\r\n    }\r\n\r\n    function getPoolCRT() public view returns (uint256) {\r\n        return poolCRT;\r\n    }\r\n\r\n    /*\r\n    *  @notice  Tells of the msg.sender is the admin\r\n    *  @dev\r\n    *  @return  true if msg.sender is admin else false\r\n    */\r\n    function isAdmin() public view returns(bool) {\r\n        return msg.sender == owner;\r\n    }\r\n\r\n    /*\r\n    *  @notice  Allows the current owner pass ownership to another address\r\n    *  @dev\r\n    */\r\n    function changeOwner(address newOwner) \r\n    external \r\n    onlyOwner {\r\n        owner = newOwner;\r\n    }\r\n\r\n    receive() external payable {}\r\n}",
  "sourcePath": "C:\\Users\\stov3\\Documents\\st3\\2\\contracts\\StreamFightersBet.sol",
  "compiler": {
    "name": "solc",
    "version": "0.8.18+commit.87f61d96.Emscripten.clang"
  },
  "schemaVersion": "3.4.16",
  "updatedAt": "2024-10-19T18:25:13.346Z",
  "networkType": "ethereum",
  "devdoc": {
    "errors": {
      "ERC721IncorrectOwner(address,uint256,address)": [
        {
          "details": "Indicates an error related to the ownership over a particular token. Used in transfers.",
          "params": {
            "owner": "Address of the current owner of a token.",
            "sender": "Address whose tokens are being transferred.",
            "tokenId": "Identifier number of a token."
          }
        }
      ],
      "ERC721InsufficientApproval(address,uint256)": [
        {
          "details": "Indicates a failure with the `operator`s approval. Used in transfers.",
          "params": {
            "operator": "Address that may be allowed to operate on tokens without being their owner.",
            "tokenId": "Identifier number of a token."
          }
        }
      ],
      "ERC721InvalidApprover(address)": [
        {
          "details": "Indicates a failure with the `approver` of a token to be approved. Used in approvals.",
          "params": {
            "approver": "Address initiating an approval operation."
          }
        }
      ],
      "ERC721InvalidOperator(address)": [
        {
          "details": "Indicates a failure with the `operator` to be approved. Used in approvals.",
          "params": {
            "operator": "Address that may be allowed to operate on tokens without being their owner."
          }
        }
      ],
      "ERC721InvalidOwner(address)": [
        {
          "details": "Indicates that an address can't be an owner. For example, `address(0)` is a forbidden owner in EIP-20. Used in balance queries.",
          "params": {
            "owner": "Address of the current owner of a token."
          }
        }
      ],
      "ERC721InvalidReceiver(address)": [
        {
          "details": "Indicates a failure with the token `receiver`. Used in transfers.",
          "params": {
            "receiver": "Address to which tokens are being transferred."
          }
        }
      ],
      "ERC721InvalidSender(address)": [
        {
          "details": "Indicates a failure with the token `sender`. Used in transfers.",
          "params": {
            "sender": "Address whose tokens are being transferred."
          }
        }
      ],
      "ERC721NonexistentToken(uint256)": [
        {
          "details": "Indicates a `tokenId` whose `owner` is the zero address.",
          "params": {
            "tokenId": "Identifier number of a token."
          }
        }
      ],
      "ReentrancyGuardReentrantCall()": [
        {
          "details": "Unauthorized reentrant call."
        }
      ]
    },
    "events": {
      "Approval(address,address,uint256)": {
        "details": "Emitted when `owner` enables `approved` to manage the `tokenId` token."
      },
      "ApprovalForAll(address,address,bool)": {
        "details": "Emitted when `owner` enables or disables (`approved`) `operator` to manage all of its assets."
      },
      "Transfer(address,address,uint256)": {
        "details": "Emitted when `tokenId` token is transferred from `from` to `to`."
      }
    },
    "kind": "dev",
    "methods": {
      "approve(address,uint256)": {
        "details": "See {IERC721-approve}."
      },
      "balanceOf(address)": {
        "details": "See {IERC721-balanceOf}."
      },
      "getApproved(uint256)": {
        "details": "See {IERC721-getApproved}."
      },
      "isApprovedForAll(address,address)": {
        "details": "See {IERC721-isApprovedForAll}."
      },
      "name()": {
        "details": "See {IERC721Metadata-name}."
      },
      "ownerOf(uint256)": {
        "details": "See {IERC721-ownerOf}."
      },
      "safeTransferFrom(address,address,uint256)": {
        "details": "See {IERC721-safeTransferFrom}."
      },
      "safeTransferFrom(address,address,uint256,bytes)": {
        "details": "See {IERC721-safeTransferFrom}."
      },
      "setApprovalForAll(address,bool)": {
        "details": "See {IERC721-setApprovalForAll}."
      },
      "supportsInterface(bytes4)": {
        "details": "See {IERC165-supportsInterface}."
      },
      "symbol()": {
        "details": "See {IERC721Metadata-symbol}."
      },
      "tokenURI(uint256)": {
        "details": "See {IERC721Metadata-tokenURI}."
      },
      "transferFrom(address,address,uint256)": {
        "details": "See {IERC721-transferFrom}."
      }
    },
    "version": 1
  },
  "userdoc": {
    "kind": "user",
    "methods": {},
    "version": 1
  }
}